{
  "_format": "hh-sol-artifact-1",
  "contractName": "VanillaRaiders",
  "sourceName": "contracts/VanillaRaiders.sol",
  "abi": [
    {
      "inputs": [
        {
          "internalType": "string[]",
          "name": "characterNames",
          "type": "string[]"
        },
        {
          "internalType": "string[]",
          "name": "characterImageURIs",
          "type": "string[]"
        },
        {
          "internalType": "uint256[]",
          "name": "characterHp",
          "type": "uint256[]"
        },
        {
          "internalType": "uint256[]",
          "name": "characterAttackDmg",
          "type": "uint256[]"
        },
        {
          "internalType": "string",
          "name": "bossName",
          "type": "string"
        },
        {
          "internalType": "string",
          "name": "bossImageURI",
          "type": "string"
        },
        {
          "internalType": "uint256",
          "name": "bossHp",
          "type": "uint256"
        },
        {
          "internalType": "uint256",
          "name": "bossAttackDamage",
          "type": "uint256"
        }
      ],
      "stateMutability": "nonpayable",
      "type": "constructor"
    },
    {
      "anonymous": false,
      "inputs": [
        {
          "indexed": true,
          "internalType": "address",
          "name": "owner",
          "type": "address"
        },
        {
          "indexed": true,
          "internalType": "address",
          "name": "approved",
          "type": "address"
        },
        {
          "indexed": true,
          "internalType": "uint256",
          "name": "tokenId",
          "type": "uint256"
        }
      ],
      "name": "Approval",
      "type": "event"
    },
    {
      "anonymous": false,
      "inputs": [
        {
          "indexed": true,
          "internalType": "address",
          "name": "owner",
          "type": "address"
        },
        {
          "indexed": true,
          "internalType": "address",
          "name": "operator",
          "type": "address"
        },
        {
          "indexed": false,
          "internalType": "bool",
          "name": "approved",
          "type": "bool"
        }
      ],
      "name": "ApprovalForAll",
      "type": "event"
    },
    {
      "anonymous": false,
      "inputs": [
        {
          "indexed": false,
          "internalType": "address",
          "name": "sender",
          "type": "address"
        },
        {
          "indexed": false,
          "internalType": "uint256",
          "name": "newBossHp",
          "type": "uint256"
        },
        {
          "indexed": false,
          "internalType": "uint256",
          "name": "newPlayerHp",
          "type": "uint256"
        }
      ],
      "name": "AttackComplete",
      "type": "event"
    },
    {
      "anonymous": false,
      "inputs": [
        {
          "indexed": false,
          "internalType": "address",
          "name": "sender",
          "type": "address"
        },
        {
          "indexed": false,
          "internalType": "uint256",
          "name": "tokenId",
          "type": "uint256"
        },
        {
          "indexed": false,
          "internalType": "uint256",
          "name": "characterIndex",
          "type": "uint256"
        }
      ],
      "name": "CharacterNFTMinted",
      "type": "event"
    },
    {
      "anonymous": false,
      "inputs": [
        {
          "indexed": true,
          "internalType": "address",
          "name": "from",
          "type": "address"
        },
        {
          "indexed": true,
          "internalType": "address",
          "name": "to",
          "type": "address"
        },
        {
          "indexed": true,
          "internalType": "uint256",
          "name": "tokenId",
          "type": "uint256"
        }
      ],
      "name": "Transfer",
      "type": "event"
    },
    {
      "inputs": [
        {
          "internalType": "address",
          "name": "to",
          "type": "address"
        },
        {
          "internalType": "uint256",
          "name": "tokenId",
          "type": "uint256"
        }
      ],
      "name": "approve",
      "outputs": [],
      "stateMutability": "nonpayable",
      "type": "function"
    },
    {
      "inputs": [],
      "name": "attackBoss",
      "outputs": [],
      "stateMutability": "nonpayable",
      "type": "function"
    },
    {
      "inputs": [
        {
          "internalType": "address",
          "name": "owner",
          "type": "address"
        }
      ],
      "name": "balanceOf",
      "outputs": [
        {
          "internalType": "uint256",
          "name": "",
          "type": "uint256"
        }
      ],
      "stateMutability": "view",
      "type": "function"
    },
    {
      "inputs": [],
      "name": "bigBoss",
      "outputs": [
        {
          "internalType": "string",
          "name": "name",
          "type": "string"
        },
        {
          "internalType": "string",
          "name": "imageURI",
          "type": "string"
        },
        {
          "internalType": "uint256",
          "name": "hp",
          "type": "uint256"
        },
        {
          "internalType": "uint256",
          "name": "maxHp",
          "type": "uint256"
        },
        {
          "internalType": "uint256",
          "name": "attackDamage",
          "type": "uint256"
        }
      ],
      "stateMutability": "view",
      "type": "function"
    },
    {
      "inputs": [],
      "name": "checkIfUserHasNFT",
      "outputs": [
        {
          "components": [
            {
              "internalType": "uint256",
              "name": "characterIndex",
              "type": "uint256"
            },
            {
              "internalType": "string",
              "name": "name",
              "type": "string"
            },
            {
              "internalType": "string",
              "name": "imageURI",
              "type": "string"
            },
            {
              "internalType": "uint256",
              "name": "hp",
              "type": "uint256"
            },
            {
              "internalType": "uint256",
              "name": "maxHp",
              "type": "uint256"
            },
            {
              "internalType": "uint256",
              "name": "attackDamage",
              "type": "uint256"
            }
          ],
          "internalType": "struct VanillaRaiders.CharacterAttributes",
          "name": "",
          "type": "tuple"
        }
      ],
      "stateMutability": "view",
      "type": "function"
    },
    {
      "inputs": [],
      "name": "getAllDefaultCharacters",
      "outputs": [
        {
          "components": [
            {
              "internalType": "uint256",
              "name": "characterIndex",
              "type": "uint256"
            },
            {
              "internalType": "string",
              "name": "name",
              "type": "string"
            },
            {
              "internalType": "string",
              "name": "imageURI",
              "type": "string"
            },
            {
              "internalType": "uint256",
              "name": "hp",
              "type": "uint256"
            },
            {
              "internalType": "uint256",
              "name": "maxHp",
              "type": "uint256"
            },
            {
              "internalType": "uint256",
              "name": "attackDamage",
              "type": "uint256"
            }
          ],
          "internalType": "struct VanillaRaiders.CharacterAttributes[]",
          "name": "",
          "type": "tuple[]"
        }
      ],
      "stateMutability": "view",
      "type": "function"
    },
    {
      "inputs": [
        {
          "internalType": "uint256",
          "name": "tokenId",
          "type": "uint256"
        }
      ],
      "name": "getApproved",
      "outputs": [
        {
          "internalType": "address",
          "name": "",
          "type": "address"
        }
      ],
      "stateMutability": "view",
      "type": "function"
    },
    {
      "inputs": [],
      "name": "getBigBoss",
      "outputs": [
        {
          "components": [
            {
              "internalType": "string",
              "name": "name",
              "type": "string"
            },
            {
              "internalType": "string",
              "name": "imageURI",
              "type": "string"
            },
            {
              "internalType": "uint256",
              "name": "hp",
              "type": "uint256"
            },
            {
              "internalType": "uint256",
              "name": "maxHp",
              "type": "uint256"
            },
            {
              "internalType": "uint256",
              "name": "attackDamage",
              "type": "uint256"
            }
          ],
          "internalType": "struct VanillaRaiders.BigBoss",
          "name": "",
          "type": "tuple"
        }
      ],
      "stateMutability": "view",
      "type": "function"
    },
    {
      "inputs": [
        {
          "internalType": "address",
          "name": "owner",
          "type": "address"
        },
        {
          "internalType": "address",
          "name": "operator",
          "type": "address"
        }
      ],
      "name": "isApprovedForAll",
      "outputs": [
        {
          "internalType": "bool",
          "name": "",
          "type": "bool"
        }
      ],
      "stateMutability": "view",
      "type": "function"
    },
    {
      "inputs": [
        {
          "internalType": "uint256",
          "name": "_characterIndex",
          "type": "uint256"
        }
      ],
      "name": "mintCharacterNFT",
      "outputs": [],
      "stateMutability": "nonpayable",
      "type": "function"
    },
    {
      "inputs": [],
      "name": "name",
      "outputs": [
        {
          "internalType": "string",
          "name": "",
          "type": "string"
        }
      ],
      "stateMutability": "view",
      "type": "function"
    },
    {
      "inputs": [
        {
          "internalType": "uint256",
          "name": "",
          "type": "uint256"
        }
      ],
      "name": "nftHolderAttributes",
      "outputs": [
        {
          "internalType": "uint256",
          "name": "characterIndex",
          "type": "uint256"
        },
        {
          "internalType": "string",
          "name": "name",
          "type": "string"
        },
        {
          "internalType": "string",
          "name": "imageURI",
          "type": "string"
        },
        {
          "internalType": "uint256",
          "name": "hp",
          "type": "uint256"
        },
        {
          "internalType": "uint256",
          "name": "maxHp",
          "type": "uint256"
        },
        {
          "internalType": "uint256",
          "name": "attackDamage",
          "type": "uint256"
        }
      ],
      "stateMutability": "view",
      "type": "function"
    },
    {
      "inputs": [
        {
          "internalType": "address",
          "name": "",
          "type": "address"
        }
      ],
      "name": "nftHolders",
      "outputs": [
        {
          "internalType": "uint256",
          "name": "",
          "type": "uint256"
        }
      ],
      "stateMutability": "view",
      "type": "function"
    },
    {
      "inputs": [
        {
          "internalType": "uint256",
          "name": "tokenId",
          "type": "uint256"
        }
      ],
      "name": "ownerOf",
      "outputs": [
        {
          "internalType": "address",
          "name": "",
          "type": "address"
        }
      ],
      "stateMutability": "view",
      "type": "function"
    },
    {
      "inputs": [
        {
          "internalType": "address",
          "name": "from",
          "type": "address"
        },
        {
          "internalType": "address",
          "name": "to",
          "type": "address"
        },
        {
          "internalType": "uint256",
          "name": "tokenId",
          "type": "uint256"
        }
      ],
      "name": "safeTransferFrom",
      "outputs": [],
      "stateMutability": "nonpayable",
      "type": "function"
    },
    {
      "inputs": [
        {
          "internalType": "address",
          "name": "from",
          "type": "address"
        },
        {
          "internalType": "address",
          "name": "to",
          "type": "address"
        },
        {
          "internalType": "uint256",
          "name": "tokenId",
          "type": "uint256"
        },
        {
          "internalType": "bytes",
          "name": "data",
          "type": "bytes"
        }
      ],
      "name": "safeTransferFrom",
      "outputs": [],
      "stateMutability": "nonpayable",
      "type": "function"
    },
    {
      "inputs": [
        {
          "internalType": "address",
          "name": "operator",
          "type": "address"
        },
        {
          "internalType": "bool",
          "name": "approved",
          "type": "bool"
        }
      ],
      "name": "setApprovalForAll",
      "outputs": [],
      "stateMutability": "nonpayable",
      "type": "function"
    },
    {
      "inputs": [
        {
          "internalType": "bytes4",
          "name": "interfaceId",
          "type": "bytes4"
        }
      ],
      "name": "supportsInterface",
      "outputs": [
        {
          "internalType": "bool",
          "name": "",
          "type": "bool"
        }
      ],
      "stateMutability": "view",
      "type": "function"
    },
    {
      "inputs": [],
      "name": "symbol",
      "outputs": [
        {
          "internalType": "string",
          "name": "",
          "type": "string"
        }
      ],
      "stateMutability": "view",
      "type": "function"
    },
    {
      "inputs": [
        {
          "internalType": "uint256",
          "name": "_tokenId",
          "type": "uint256"
        }
      ],
      "name": "tokenURI",
      "outputs": [
        {
          "internalType": "string",
          "name": "",
          "type": "string"
        }
      ],
      "stateMutability": "view",
      "type": "function"
    },
    {
      "inputs": [
        {
          "internalType": "address",
          "name": "from",
          "type": "address"
        },
        {
          "internalType": "address",
          "name": "to",
          "type": "address"
        },
        {
          "internalType": "uint256",
          "name": "tokenId",
          "type": "uint256"
        }
      ],
      "name": "transferFrom",
      "outputs": [],
      "stateMutability": "nonpayable",
      "type": "function"
    }
  ],
  "bytecode": "0x60806040526000600f553480156200001657600080fd5b50604051620060623803806200606283398181016040528101906200003c919062000a90565b6040518060400160405280600f81526020017f56616e696c6c61205261696465727300000000000000000000000000000000008152506040518060400160405280600781526020017f52414944455253000000000000000000000000000000000000000000000000008152508160009081620000b9919062000e54565b508060019081620000cb919062000e54565b5050506040518060a0016040528085815260200184815260200183815260200183815260200182815250600a60008201518160000190816200010e919062000e54565b50602082015181600101908162000126919062000e54565b50604082015181600201556060820151816003015560808201518160040155905050620002a96040518060600160405280602a815260200162006038602a9139600a6000018054620001789062000c4d565b80601f0160208091040260200160405190810160405280929190818152602001828054620001a69062000c4d565b8015620001f75780601f10620001cb57610100808354040283529160200191620001f7565b820191906000526020600020905b815481529060010190602001808311620001d957829003601f168201915b5050505050600a60020154600a6001018054620002149062000c4d565b80601f0160208091040260200160405190810160405280929190818152602001828054620002429062000c4d565b8015620002935780601f10620002675761010080835404028352916020019162000293565b820191906000526020600020905b8154815290600101906020018083116200027557829003601f168201915b50505050506200060560201b62001c351760201c565b60005b8851811015620005df5760076040518060c001604052808381526020018b8481518110620002df57620002de62000f3b565b5b602002602001015181526020018a848151811062000302576200030162000f3b565b5b6020026020010151815260200189848151811062000325576200032462000f3b565b5b6020026020010151815260200189848151811062000348576200034762000f3b565b5b602002602001015181526020018884815181106200036b576200036a62000f3b565b5b60200260200101518152509080600181540180825580915050600190039060005260206000209060060201600090919091909150600082015181600001556020820151816001019081620003c0919062000e54565b506040820151816002019081620003d8919062000e54565b50606082015181600301556080820151816004015560a08201518160050155505060006007828154811062000412576200041162000f3b565b5b90600052602060002090600602016040518060c001604052908160008201548152602001600182018054620004479062000c4d565b80601f0160208091040260200160405190810160405280929190818152602001828054620004759062000c4d565b8015620004c65780601f106200049a57610100808354040283529160200191620004c6565b820191906000526020600020905b815481529060010190602001808311620004a857829003601f168201915b50505050508152602001600282018054620004e19062000c4d565b80601f01602080910402602001604051908101604052809291908181526020018280546200050f9062000c4d565b8015620005605780601f10620005345761010080835404028352916020019162000560565b820191906000526020600020905b8154815290600101906020018083116200054257829003601f168201915b5050505050815260200160038201548152602001600482015481526020016005820154815250509050620005c760405180606001604052806025815260200162006013602591398260200151836060015184604001516200060560201b62001c351760201c565b50600181620005d7919062000f99565b9050620002ac565b50620005f76006620006b160201b62001cd71760201c565b505050505050505062001099565b620006ab8484848460405160240162000622949392919062001037565b6040516020818303038152906040527f5d1a971a000000000000000000000000000000000000000000000000000000007bffffffffffffffffffffffffffffffffffffffffffffffffffffffff19166020820180517bffffffffffffffffffffffffffffffffffffffffffffffffffffffff8381831617835250505050620006c760201b60201c565b50505050565b6001816000016000828254019250508190555050565b60008151905060006a636f6e736f6c652e6c6f679050602083016000808483855afa5050505050565b6000604051905090565b600080fd5b600080fd5b600080fd5b6000601f19601f8301169050919050565b7f4e487b7100000000000000000000000000000000000000000000000000000000600052604160045260246000fd5b620007548262000709565b810181811067ffffffffffffffff821117156200077657620007756200071a565b5b80604052505050565b60006200078b620006f0565b905062000799828262000749565b919050565b600067ffffffffffffffff821115620007bc57620007bb6200071a565b5b602082029050602081019050919050565b600080fd5b600080fd5b600067ffffffffffffffff821115620007f557620007f46200071a565b5b620008008262000709565b9050602081019050919050565b60005b838110156200082d57808201518184015260208101905062000810565b60008484015250505050565b6000620008506200084a84620007d7565b6200077f565b9050828152602081018484840111156200086f576200086e620007d2565b5b6200087c8482856200080d565b509392505050565b600082601f8301126200089c576200089b62000704565b5b8151620008ae84826020860162000839565b91505092915050565b6000620008ce620008c8846200079e565b6200077f565b90508083825260208201905060208402830185811115620008f457620008f3620007cd565b5b835b818110156200094257805167ffffffffffffffff8111156200091d576200091c62000704565b5b8086016200092c898262000884565b85526020850194505050602081019050620008f6565b5050509392505050565b600082601f83011262000964576200096362000704565b5b815162000976848260208601620008b7565b91505092915050565b600067ffffffffffffffff8211156200099d576200099c6200071a565b5b602082029050602081019050919050565b6000819050919050565b620009c381620009ae565b8114620009cf57600080fd5b50565b600081519050620009e381620009b8565b92915050565b600062000a00620009fa846200097f565b6200077f565b9050808382526020820190506020840283018581111562000a265762000a25620007cd565b5b835b8181101562000a53578062000a3e8882620009d2565b84526020840193505060208101905062000a28565b5050509392505050565b600082601f83011262000a755762000a7462000704565b5b815162000a87848260208601620009e9565b91505092915050565b600080600080600080600080610100898b03121562000ab45762000ab3620006fa565b5b600089015167ffffffffffffffff81111562000ad55762000ad4620006ff565b5b62000ae38b828c016200094c565b985050602089015167ffffffffffffffff81111562000b075762000b06620006ff565b5b62000b158b828c016200094c565b975050604089015167ffffffffffffffff81111562000b395762000b38620006ff565b5b62000b478b828c0162000a5d565b965050606089015167ffffffffffffffff81111562000b6b5762000b6a620006ff565b5b62000b798b828c0162000a5d565b955050608089015167ffffffffffffffff81111562000b9d5762000b9c620006ff565b5b62000bab8b828c0162000884565b94505060a089015167ffffffffffffffff81111562000bcf5762000bce620006ff565b5b62000bdd8b828c0162000884565b93505060c062000bf08b828c01620009d2565b92505060e062000c038b828c01620009d2565b9150509295985092959890939650565b600081519050919050565b7f4e487b7100000000000000000000000000000000000000000000000000000000600052602260045260246000fd5b6000600282049050600182168062000c6657607f821691505b60208210810362000c7c5762000c7b62000c1e565b5b50919050565b60008190508160005260206000209050919050565b60006020601f8301049050919050565b600082821b905092915050565b60006008830262000ce67fffffffffffffffffffffffffffffffffffffffffffffffffffffffffffffffff8262000ca7565b62000cf2868362000ca7565b95508019841693508086168417925050509392505050565b6000819050919050565b600062000d3562000d2f62000d2984620009ae565b62000d0a565b620009ae565b9050919050565b6000819050919050565b62000d518362000d14565b62000d6962000d608262000d3c565b84845462000cb4565b825550505050565b600090565b62000d8062000d71565b62000d8d81848462000d46565b505050565b5b8181101562000db55762000da960008262000d76565b60018101905062000d93565b5050565b601f82111562000e045762000dce8162000c82565b62000dd98462000c97565b8101602085101562000de9578190505b62000e0162000df88562000c97565b83018262000d92565b50505b505050565b600082821c905092915050565b600062000e296000198460080262000e09565b1980831691505092915050565b600062000e44838362000e16565b9150826002028217905092915050565b62000e5f8262000c13565b67ffffffffffffffff81111562000e7b5762000e7a6200071a565b5b62000e87825462000c4d565b62000e9482828562000db9565b600060209050601f83116001811462000ecc576000841562000eb7578287015190505b62000ec3858262000e36565b86555062000f33565b601f19841662000edc8662000c82565b60005b8281101562000f065784890151825560018201915060208501945060208101905062000edf565b8683101562000f26578489015162000f22601f89168262000e16565b8355505b6001600288020188555050505b505050505050565b7f4e487b7100000000000000000000000000000000000000000000000000000000600052603260045260246000fd5b7f4e487b7100000000000000000000000000000000000000000000000000000000600052601160045260246000fd5b600062000fa682620009ae565b915062000fb383620009ae565b925082820190508082111562000fce5762000fcd62000f6a565b5b92915050565b600082825260208201905092915050565b600062000ff28262000c13565b62000ffe818562000fd4565b9350620010108185602086016200080d565b6200101b8162000709565b840191505092915050565b6200103181620009ae565b82525050565b6000608082019050818103600083015262001053818762000fe5565b9050818103602083015262001069818662000fe5565b90506200107a604083018562001026565b81810360608301526200108e818462000fe5565b905095945050505050565b614f6a80620010a96000396000f3fe608060405234801561001057600080fd5b50600436106101375760003560e01c806395d89b41116100b8578063b953084e1161007c578063b953084e14610369578063c87b56dd14610387578063c8cf27f4146103b7578063d4f24c5b146103d5578063e985e9c5146103df578063f8b81ef71461040f57610137565b806395d89b41146102bc57806398da4c95146102da578063a22cb4651461030f578063a9c326791461032b578063b88d4fde1461034d57610137565b806323b872dd116100ff57806323b872dd146101f457806342842e0e146102105780636352211e1461022c57806370a082311461025c5780637df124a11461028c57610137565b806301ffc9a71461013c5780630665f9611461016c57806306fdde031461018a578063081812fc146101a8578063095ea7b3146101d8575b600080fd5b610156600480360381019061015191906131d7565b61042b565b604051610163919061321f565b60405180910390f35b61017461050d565b6040516101819190613360565b60405180910390f35b610192610669565b60405161019f91906133cc565b60405180910390f35b6101c260048036038101906101bd919061341a565b6106fb565b6040516101cf9190613488565b60405180910390f35b6101f260048036038101906101ed91906134cf565b610741565b005b61020e6004803603810190610209919061350f565b610858565b005b61022a6004803603810190610225919061350f565b6108b8565b005b6102466004803603810190610241919061341a565b6108d8565b6040516102539190613488565b60405180910390f35b61027660048036038101906102719190613562565b61095e565b604051610283919061359e565b60405180910390f35b6102a660048036038101906102a19190613562565b610a15565b6040516102b3919061359e565b60405180910390f35b6102c4610a2d565b6040516102d191906133cc565b60405180910390f35b6102f460048036038101906102ef919061341a565b610abf565b604051610306969594939291906135b9565b60405180910390f35b61032960048036038101906103249190613654565b610c0b565b005b610333610c21565b604051610344959493929190613694565b60405180910390f35b6103676004803603810190610362919061382a565b610d55565b005b610371610db7565b60405161037e91906139ff565b60405180910390f35b6103a1600480360381019061039c919061341a565b610f62565b6040516103ae91906133cc565b60405180910390f35b6103bf61117d565b6040516103cc9190613ab1565b60405180910390f35b6103dd611355565b005b6103f960048036038101906103f49190613ad3565b611879565b604051610406919061321f565b60405180910390f35b6104296004803603810190610424919061341a565b61190d565b005b60007f80ac58cd000000000000000000000000000000000000000000000000000000007bffffffffffffffffffffffffffffffffffffffffffffffffffffffff1916827bffffffffffffffffffffffffffffffffffffffffffffffffffffffff191614806104f657507f5b5e139f000000000000000000000000000000000000000000000000000000007bffffffffffffffffffffffffffffffffffffffffffffffffffffffff1916827bffffffffffffffffffffffffffffffffffffffffffffffffffffffff1916145b80610506575061050582611ced565b5b9050919050565b610515613106565b600a6040518060a001604052908160008201805461053290613b42565b80601f016020809104026020016040519081016040528092919081815260200182805461055e90613b42565b80156105ab5780601f10610580576101008083540402835291602001916105ab565b820191906000526020600020905b81548152906001019060200180831161058e57829003601f168201915b505050505081526020016001820180546105c490613b42565b80601f01602080910402602001604051908101604052809291908181526020018280546105f090613b42565b801561063d5780601f106106125761010080835404028352916020019161063d565b820191906000526020600020905b81548152906001019060200180831161062057829003601f168201915b505050505081526020016002820154815260200160038201548152602001600482015481525050905090565b60606000805461067890613b42565b80601f01602080910402602001604051908101604052809291908181526020018280546106a490613b42565b80156106f15780601f106106c6576101008083540402835291602001916106f1565b820191906000526020600020905b8154815290600101906020018083116106d457829003601f168201915b5050505050905090565b600061070682611d57565b6004600083815260200190815260200160002060009054906101000a900473ffffffffffffffffffffffffffffffffffffffff169050919050565b600061074c826108d8565b90508073ffffffffffffffffffffffffffffffffffffffff168373ffffffffffffffffffffffffffffffffffffffff16036107bc576040517f08c379a00000000000000000000000000000000000000000000000000000000081526004016107b390613be5565b60405180910390fd5b8073ffffffffffffffffffffffffffffffffffffffff166107db611da2565b73ffffffffffffffffffffffffffffffffffffffff16148061080a575061080981610804611da2565b611879565b5b610849576040517f08c379a000000000000000000000000000000000000000000000000000000000815260040161084090613c77565b60405180910390fd5b6108538383611daa565b505050565b610869610863611da2565b82611e63565b6108a8576040517f08c379a000000000000000000000000000000000000000000000000000000000815260040161089f90613d09565b60405180910390fd5b6108b3838383611ef8565b505050565b6108d383838360405180602001604052806000815250610d55565b505050565b6000806108e4836121f1565b9050600073ffffffffffffffffffffffffffffffffffffffff168173ffffffffffffffffffffffffffffffffffffffff1603610955576040517f08c379a000000000000000000000000000000000000000000000000000000000815260040161094c90613d75565b60405180910390fd5b80915050919050565b60008073ffffffffffffffffffffffffffffffffffffffff168273ffffffffffffffffffffffffffffffffffffffff16036109ce576040517f08c379a00000000000000000000000000000000000000000000000000000000081526004016109c590613e07565b60405180910390fd5b600360008373ffffffffffffffffffffffffffffffffffffffff1673ffffffffffffffffffffffffffffffffffffffff168152602001908152602001600020549050919050565b60096020528060005260406000206000915090505481565b606060018054610a3c90613b42565b80601f0160208091040260200160405190810160405280929190818152602001828054610a6890613b42565b8015610ab55780601f10610a8a57610100808354040283529160200191610ab5565b820191906000526020600020905b815481529060010190602001808311610a9857829003601f168201915b5050505050905090565b6008602052806000526040600020600091509050806000015490806001018054610ae890613b42565b80601f0160208091040260200160405190810160405280929190818152602001828054610b1490613b42565b8015610b615780601f10610b3657610100808354040283529160200191610b61565b820191906000526020600020905b815481529060010190602001808311610b4457829003601f168201915b505050505090806002018054610b7690613b42565b80601f0160208091040260200160405190810160405280929190818152602001828054610ba290613b42565b8015610bef5780601f10610bc457610100808354040283529160200191610bef565b820191906000526020600020905b815481529060010190602001808311610bd257829003601f168201915b5050505050908060030154908060040154908060050154905086565b610c1d610c16611da2565b838361222e565b5050565b600a806000018054610c3290613b42565b80601f0160208091040260200160405190810160405280929190818152602001828054610c5e90613b42565b8015610cab5780601f10610c8057610100808354040283529160200191610cab565b820191906000526020600020905b815481529060010190602001808311610c8e57829003601f168201915b505050505090806001018054610cc090613b42565b80601f0160208091040260200160405190810160405280929190818152602001828054610cec90613b42565b8015610d395780601f10610d0e57610100808354040283529160200191610d39565b820191906000526020600020905b815481529060010190602001808311610d1c57829003601f168201915b5050505050908060020154908060030154908060040154905085565b610d66610d60611da2565b83611e63565b610da5576040517f08c379a0000000000000000000000000000000000000000000000000000000008152600401610d9c90613d09565b60405180910390fd5b610db18484848461239a565b50505050565b60606007805480602002602001604051908101604052809291908181526020016000905b82821015610f5957838290600052602060002090600602016040518060c001604052908160008201548152602001600182018054610e1890613b42565b80601f0160208091040260200160405190810160405280929190818152602001828054610e4490613b42565b8015610e915780601f10610e6657610100808354040283529160200191610e91565b820191906000526020600020905b815481529060010190602001808311610e7457829003601f168201915b50505050508152602001600282018054610eaa90613b42565b80601f0160208091040260200160405190810160405280929190818152602001828054610ed690613b42565b8015610f235780601f10610ef857610100808354040283529160200191610f23565b820191906000526020600020905b815481529060010190602001808311610f0657829003601f168201915b50505050508152602001600382015481526020016004820154815260200160058201548152505081526020019060010190610ddb565b50505050905090565b60606000600860008481526020019081526020016000206040518060c001604052908160008201548152602001600182018054610f9e90613b42565b80601f0160208091040260200160405190810160405280929190818152602001828054610fca90613b42565b80156110175780601f10610fec57610100808354040283529160200191611017565b820191906000526020600020905b815481529060010190602001808311610ffa57829003601f168201915b5050505050815260200160028201805461103090613b42565b80601f016020809104026020016040519081016040528092919081815260200182805461105c90613b42565b80156110a95780601f1061107e576101008083540402835291602001916110a9565b820191906000526020600020905b81548152906001019060200180831161108c57829003601f168201915b505050505081526020016003820154815260200160048201548152602001600582015481525050905060006110e182606001516123f6565b905060006110f283608001516123f6565b905060006111038460a001516123f6565b905060006111498560200151611118896123f6565b876040015187878760405160200161113596959493929190614135565b6040516020818303038152906040526124c4565b905060008160405160200161115e9190614226565b6040516020818303038152906040529050809650505050505050919050565b611185613135565b6000600960003373ffffffffffffffffffffffffffffffffffffffff1673ffffffffffffffffffffffffffffffffffffffff168152602001908152602001600020549050600081111561134457600860008281526020019081526020016000206040518060c00160405290816000820154815260200160018201805461120a90613b42565b80601f016020809104026020016040519081016040528092919081815260200182805461123690613b42565b80156112835780601f1061125857610100808354040283529160200191611283565b820191906000526020600020905b81548152906001019060200180831161126657829003601f168201915b5050505050815260200160028201805461129c90613b42565b80601f01602080910402602001604051908101604052809291908181526020018280546112c890613b42565b80156113155780601f106112ea57610100808354040283529160200191611315565b820191906000526020600020905b8154815290600101906020018083116112f857829003601f168201915b505050505081526020016003820154815260200160048201548152602001600582015481525050915050611352565b61134c613135565b80925050505b90565b6000600960003373ffffffffffffffffffffffffffffffffffffffff1673ffffffffffffffffffffffffffffffffffffffff16815260200190815260200160002054905060006008600083815260200190815260200160002090506114686040518060600160405280603c8152602001614ef9603c91398260010180546113db90613b42565b80601f016020809104026020016040519081016040528092919081815260200182805461140790613b42565b80156114545780601f1061142957610100808354040283529160200191611454565b820191906000526020600020905b81548152906001019060200180831161143757829003601f168201915b50505050508360030154846005015461265b565b6115406040518060400160405280601b81526020017f426f73732025732068617320257320485020616e642025732041440000000000815250600a60000180546114b190613b42565b80601f01602080910402602001604051908101604052809291908181526020018280546114dd90613b42565b801561152a5780601f106114ff5761010080835404028352916020019161152a565b820191906000526020600020905b81548152906001019060200180831161150d57829003601f168201915b5050505050600a60020154600a6004015461265b565b6000816003015411611587576040517f08c379a000000000000000000000000000000000000000000000000000000000815260040161157e906142ba565b60405180910390fd5b6000600a60020154116115cf576040517f08c379a00000000000000000000000000000000000000000000000000000000081526004016115c69061434c565b60405180910390fd5b8060050154600a6002015410156115f0576000600a600201819055506117a6565b60056115fc600a6126fd565b11156116d9578060050154600a60020154611617919061439b565b600a600201819055506116d4604051806060016040528060218152602001614e1d6021913982600101805461164b90613b42565b80601f016020809104026020016040519081016040528092919081815260200182805461167790613b42565b80156116c45780601f10611699576101008083540402835291602001916116c4565b820191906000526020600020905b8154815290600101906020018083116116a757829003601f168201915b5050505050600a60020154612759565b6117a5565b6117a46040518060400160405280600b81526020017f2573206d6973736564210a00000000000000000000000000000000000000000081525082600101805461172190613b42565b80601f016020809104026020016040519081016040528092919081815260200182805461174d90613b42565b801561179a5780601f1061176f5761010080835404028352916020019161179a565b820191906000526020600020905b81548152906001019060200180831161177d57829003601f168201915b50505050506127f8565b5b5b600a60040154816003015410156117c657600081600301819055506117e4565b600a6004015481600301546117db919061439b565b81600301819055505b61180b604051806060016040528060258152602001614e3e60259139600a60020154612894565b611831604051806060016040528060288152602001614ea3602891398260030154612894565b7f32bd565ee3f2cb5ddd742bbecd6048d3e9abe90b3827a40c2b72d232e71e3c9d33600a60020154836003015460405161186d939291906143cf565b60405180910390a15050565b6000600560008473ffffffffffffffffffffffffffffffffffffffff1673ffffffffffffffffffffffffffffffffffffffff16815260200190815260200160002060008373ffffffffffffffffffffffffffffffffffffffff1673ffffffffffffffffffffffffffffffffffffffff16815260200190815260200160002060009054906101000a900460ff16905092915050565b60006119196006612930565b9050611925338261293e565b6040518060c001604052808381526020016007848154811061194a57611949614406565b5b9060005260206000209060060201600101805461196690613b42565b80601f016020809104026020016040519081016040528092919081815260200182805461199290613b42565b80156119df5780601f106119b4576101008083540402835291602001916119df565b820191906000526020600020905b8154815290600101906020018083116119c257829003601f168201915b50505050508152602001600784815481106119fd576119fc614406565b5b90600052602060002090600602016002018054611a1990613b42565b80601f0160208091040260200160405190810160405280929190818152602001828054611a4590613b42565b8015611a925780601f10611a6757610100808354040283529160200191611a92565b820191906000526020600020905b815481529060010190602001808311611a7557829003601f168201915b5050505050815260200160078481548110611ab057611aaf614406565b5b906000526020600020906006020160030154815260200160078481548110611adb57611ada614406565b5b906000526020600020906006020160040154815260200160078481548110611b0657611b05614406565b5b90600052602060002090600602016005015481525060086000838152602001908152602001600020600082015181600001556020820151816001019081611b4d91906145e1565b506040820151816002019081611b6391906145e1565b50606082015181600301556080820151816004015560a08201518160050155905050611ba86040518060600160405280602e8152602001614ecb602e9139828461295c565b80600960003373ffffffffffffffffffffffffffffffffffffffff1673ffffffffffffffffffffffffffffffffffffffff16815260200190815260200160002081905550611bf66006611cd7565b7f4bc303fd457a97b4691b9af582ce71868a3d258638c8d4f8c60988a0f0bfb8cd338284604051611c29939291906143cf565b60405180910390a15050565b611cd184848484604051602401611c4f94939291906146b3565b6040516020818303038152906040527f5d1a971a000000000000000000000000000000000000000000000000000000007bffffffffffffffffffffffffffffffffffffffffffffffffffffffff19166020820180517bffffffffffffffffffffffffffffffffffffffffffffffffffffffff83818316178352505050506129fb565b50505050565b6001816000016000828254019250508190555050565b60007f01ffc9a7000000000000000000000000000000000000000000000000000000007bffffffffffffffffffffffffffffffffffffffffffffffffffffffff1916827bffffffffffffffffffffffffffffffffffffffffffffffffffffffff1916149050919050565b611d6081612a24565b611d9f576040517f08c379a0000000000000000000000000000000000000000000000000000000008152600401611d9690613d75565b60405180910390fd5b50565b600033905090565b816004600083815260200190815260200160002060006101000a81548173ffffffffffffffffffffffffffffffffffffffff021916908373ffffffffffffffffffffffffffffffffffffffff160217905550808273ffffffffffffffffffffffffffffffffffffffff16611e1d836108d8565b73ffffffffffffffffffffffffffffffffffffffff167f8c5be1e5ebec7d5bd14f71427d1e84f3dd0314c0f7b2291e5b200ac8c7c3b92560405160405180910390a45050565b600080611e6f836108d8565b90508073ffffffffffffffffffffffffffffffffffffffff168473ffffffffffffffffffffffffffffffffffffffff161480611eb15750611eb08185611879565b5b80611eef57508373ffffffffffffffffffffffffffffffffffffffff16611ed7846106fb565b73ffffffffffffffffffffffffffffffffffffffff16145b91505092915050565b8273ffffffffffffffffffffffffffffffffffffffff16611f18826108d8565b73ffffffffffffffffffffffffffffffffffffffff1614611f6e576040517f08c379a0000000000000000000000000000000000000000000000000000000008152600401611f659061477f565b60405180910390fd5b600073ffffffffffffffffffffffffffffffffffffffff168273ffffffffffffffffffffffffffffffffffffffff1603611fdd576040517f08c379a0000000000000000000000000000000000000000000000000000000008152600401611fd490614811565b60405180910390fd5b611fea8383836001612a65565b8273ffffffffffffffffffffffffffffffffffffffff1661200a826108d8565b73ffffffffffffffffffffffffffffffffffffffff1614612060576040517f08c379a00000000000000000000000000000000000000000000000000000000081526004016120579061477f565b60405180910390fd5b6004600082815260200190815260200160002060006101000a81549073ffffffffffffffffffffffffffffffffffffffff02191690556001600360008573ffffffffffffffffffffffffffffffffffffffff1673ffffffffffffffffffffffffffffffffffffffff168152602001908152602001600020600082825403925050819055506001600360008473ffffffffffffffffffffffffffffffffffffffff1673ffffffffffffffffffffffffffffffffffffffff16815260200190815260200160002060008282540192505081905550816002600083815260200190815260200160002060006101000a81548173ffffffffffffffffffffffffffffffffffffffff021916908373ffffffffffffffffffffffffffffffffffffffff160217905550808273ffffffffffffffffffffffffffffffffffffffff168473ffffffffffffffffffffffffffffffffffffffff167fddf252ad1be2c89b69c2b068fc378daa952ba7f163c4a11628f55a4df523b3ef60405160405180910390a46121ec8383836001612b8b565b505050565b60006002600083815260200190815260200160002060009054906101000a900473ffffffffffffffffffffffffffffffffffffffff169050919050565b8173ffffffffffffffffffffffffffffffffffffffff168373ffffffffffffffffffffffffffffffffffffffff160361229c576040517f08c379a00000000000000000000000000000000000000000000000000000000081526004016122939061487d565b60405180910390fd5b80600560008573ffffffffffffffffffffffffffffffffffffffff1673ffffffffffffffffffffffffffffffffffffffff16815260200190815260200160002060008473ffffffffffffffffffffffffffffffffffffffff1673ffffffffffffffffffffffffffffffffffffffff16815260200190815260200160002060006101000a81548160ff0219169083151502179055508173ffffffffffffffffffffffffffffffffffffffff168373ffffffffffffffffffffffffffffffffffffffff167f17307eab39ab6107e8899845ad3d59bd9653f200f220920489ca2b5937696c318360405161238d919061321f565b60405180910390a3505050565b6123a5848484611ef8565b6123b184848484612b91565b6123f0576040517f08c379a00000000000000000000000000000000000000000000000000000000081526004016123e79061490f565b60405180910390fd5b50505050565b60606000600161240584612d18565b01905060008167ffffffffffffffff811115612424576124236136ff565b5b6040519080825280601f01601f1916602001820160405280156124565781602001600182028036833780820191505090505b509050600082602001820190505b6001156124b9578080600190039150507f3031323334353637383961626364656600000000000000000000000000000000600a86061a8153600a85816124ad576124ac61492f565b5b04945060008503612464575b819350505050919050565b6060600082519050600081036124ec5760405180602001604052806000815250915050612656565b600060036002836124fd919061495e565b6125079190614992565b600461251391906149c3565b90506000602082612524919061495e565b67ffffffffffffffff81111561253d5761253c6136ff565b5b6040519080825280601f01601f19166020018201604052801561256f5781602001600182028036833780820191505090505b5090506000604051806060016040528060408152602001614e63604091399050600181016020830160005b868110156126135760038101905062ffffff818a015116603f8160121c168401518060081b905060ff603f83600c1c1686015116810190508060081b905060ff603f8360061c1686015116810190508060081b905060ff603f831686015116810190508060e01b9050808452600484019350505061259a565b50600386066001811461262d576002811461263d57612648565b613d3d60f01b6002830352612648565b603d60f81b60018303525b508484525050819450505050505b919050565b6126f7848484846040516024016126759493929190614a05565b6040516020818303038152906040527ff45d7d2c000000000000000000000000000000000000000000000000000000007bffffffffffffffffffffffffffffffffffffffffffffffffffffffff19166020820180517bffffffffffffffffffffffffffffffffffffffffffffffffffffffff83818316178352505050506129fb565b50505050565b6000600f600081548092919061271290614a58565b9190505550814233600f5460405160200161272f93929190614b09565b6040516020818303038152906040528051906020012060001c6127529190614b46565b9050919050565b6127f383838360405160240161277193929190614b77565b6040516020818303038152906040527f5821efa1000000000000000000000000000000000000000000000000000000007bffffffffffffffffffffffffffffffffffffffffffffffffffffffff19166020820180517bffffffffffffffffffffffffffffffffffffffffffffffffffffffff83818316178352505050506129fb565b505050565b612890828260405160240161280e929190614bbc565b6040516020818303038152906040527f4b5c4277000000000000000000000000000000000000000000000000000000007bffffffffffffffffffffffffffffffffffffffffffffffffffffffff19166020820180517bffffffffffffffffffffffffffffffffffffffffffffffffffffffff83818316178352505050506129fb565b5050565b61292c82826040516024016128aa929190614bf3565b6040516020818303038152906040527fb60e72cc000000000000000000000000000000000000000000000000000000007bffffffffffffffffffffffffffffffffffffffffffffffffffffffff19166020820180517bffffffffffffffffffffffffffffffffffffffffffffffffffffffff83818316178352505050506129fb565b5050565b600081600001549050919050565b612958828260405180602001604052806000815250612e6b565b5050565b6129f683838360405160240161297493929190614c23565b6040516020818303038152906040527fca47c4eb000000000000000000000000000000000000000000000000000000007bffffffffffffffffffffffffffffffffffffffffffffffffffffffff19166020820180517bffffffffffffffffffffffffffffffffffffffffffffffffffffffff83818316178352505050506129fb565b505050565b60008151905060006a636f6e736f6c652e6c6f679050602083016000808483855afa5050505050565b60008073ffffffffffffffffffffffffffffffffffffffff16612a46836121f1565b73ffffffffffffffffffffffffffffffffffffffff1614159050919050565b6001811115612b8557600073ffffffffffffffffffffffffffffffffffffffff168473ffffffffffffffffffffffffffffffffffffffff1614612af95780600360008673ffffffffffffffffffffffffffffffffffffffff1673ffffffffffffffffffffffffffffffffffffffff1681526020019081526020016000206000828254612af1919061439b565b925050819055505b600073ffffffffffffffffffffffffffffffffffffffff168373ffffffffffffffffffffffffffffffffffffffff1614612b845780600360008573ffffffffffffffffffffffffffffffffffffffff1673ffffffffffffffffffffffffffffffffffffffff1681526020019081526020016000206000828254612b7c919061495e565b925050819055505b5b50505050565b50505050565b6000612bb28473ffffffffffffffffffffffffffffffffffffffff16612ec6565b15612d0b578373ffffffffffffffffffffffffffffffffffffffff1663150b7a02612bdb611da2565b8786866040518563ffffffff1660e01b8152600401612bfd9493929190614cb6565b6020604051808303816000875af1925050508015612c3957506040513d601f19601f82011682018060405250810190612c369190614d17565b60015b612cbb573d8060008114612c69576040519150601f19603f3d011682016040523d82523d6000602084013e612c6e565b606091505b506000815103612cb3576040517f08c379a0000000000000000000000000000000000000000000000000000000008152600401612caa9061490f565b60405180910390fd5b805181602001fd5b63150b7a0260e01b7bffffffffffffffffffffffffffffffffffffffffffffffffffffffff1916817bffffffffffffffffffffffffffffffffffffffffffffffffffffffff191614915050612d10565b600190505b949350505050565b600080600090507a184f03e93ff9f4daa797ed6e38ed64bf6a1f0100000000000000008310612d76577a184f03e93ff9f4daa797ed6e38ed64bf6a1f0100000000000000008381612d6c57612d6b61492f565b5b0492506040810190505b6d04ee2d6d415b85acef81000000008310612db3576d04ee2d6d415b85acef81000000008381612da957612da861492f565b5b0492506020810190505b662386f26fc100008310612de257662386f26fc100008381612dd857612dd761492f565b5b0492506010810190505b6305f5e1008310612e0b576305f5e1008381612e0157612e0061492f565b5b0492506008810190505b6127108310612e30576127108381612e2657612e2561492f565b5b0492506004810190505b60648310612e535760648381612e4957612e4861492f565b5b0492506002810190505b600a8310612e62576001810190505b80915050919050565b612e758383612ee9565b612e826000848484612b91565b612ec1576040517f08c379a0000000000000000000000000000000000000000000000000000000008152600401612eb89061490f565b60405180910390fd5b505050565b6000808273ffffffffffffffffffffffffffffffffffffffff163b119050919050565b600073ffffffffffffffffffffffffffffffffffffffff168273ffffffffffffffffffffffffffffffffffffffff1603612f58576040517f08c379a0000000000000000000000000000000000000000000000000000000008152600401612f4f90614d90565b60405180910390fd5b612f6181612a24565b15612fa1576040517f08c379a0000000000000000000000000000000000000000000000000000000008152600401612f9890614dfc565b60405180910390fd5b612faf600083836001612a65565b612fb881612a24565b15612ff8576040517f08c379a0000000000000000000000000000000000000000000000000000000008152600401612fef90614dfc565b60405180910390fd5b6001600360008473ffffffffffffffffffffffffffffffffffffffff1673ffffffffffffffffffffffffffffffffffffffff16815260200190815260200160002060008282540192505081905550816002600083815260200190815260200160002060006101000a81548173ffffffffffffffffffffffffffffffffffffffff021916908373ffffffffffffffffffffffffffffffffffffffff160217905550808273ffffffffffffffffffffffffffffffffffffffff16600073ffffffffffffffffffffffffffffffffffffffff167fddf252ad1be2c89b69c2b068fc378daa952ba7f163c4a11628f55a4df523b3ef60405160405180910390a4613102600083836001612b8b565b5050565b6040518060a0016040528060608152602001606081526020016000815260200160008152602001600081525090565b6040518060c001604052806000815260200160608152602001606081526020016000815260200160008152602001600081525090565b6000604051905090565b600080fd5b600080fd5b60007fffffffff0000000000000000000000000000000000000000000000000000000082169050919050565b6131b48161317f565b81146131bf57600080fd5b50565b6000813590506131d1816131ab565b92915050565b6000602082840312156131ed576131ec613175565b5b60006131fb848285016131c2565b91505092915050565b60008115159050919050565b61321981613204565b82525050565b60006020820190506132346000830184613210565b92915050565b600081519050919050565b600082825260208201905092915050565b60005b83811015613274578082015181840152602081019050613259565b60008484015250505050565b6000601f19601f8301169050919050565b600061329c8261323a565b6132a68185613245565b93506132b6818560208601613256565b6132bf81613280565b840191505092915050565b6000819050919050565b6132dd816132ca565b82525050565b600060a08301600083015184820360008601526133008282613291565b9150506020830151848203602086015261331a8282613291565b915050604083015161332f60408601826132d4565b50606083015161334260608601826132d4565b50608083015161335560808601826132d4565b508091505092915050565b6000602082019050818103600083015261337a81846132e3565b905092915050565b600082825260208201905092915050565b600061339e8261323a565b6133a88185613382565b93506133b8818560208601613256565b6133c181613280565b840191505092915050565b600060208201905081810360008301526133e68184613393565b905092915050565b6133f7816132ca565b811461340257600080fd5b50565b600081359050613414816133ee565b92915050565b6000602082840312156134305761342f613175565b5b600061343e84828501613405565b91505092915050565b600073ffffffffffffffffffffffffffffffffffffffff82169050919050565b600061347282613447565b9050919050565b61348281613467565b82525050565b600060208201905061349d6000830184613479565b92915050565b6134ac81613467565b81146134b757600080fd5b50565b6000813590506134c9816134a3565b92915050565b600080604083850312156134e6576134e5613175565b5b60006134f4858286016134ba565b925050602061350585828601613405565b9150509250929050565b60008060006060848603121561352857613527613175565b5b6000613536868287016134ba565b9350506020613547868287016134ba565b925050604061355886828701613405565b9150509250925092565b60006020828403121561357857613577613175565b5b6000613586848285016134ba565b91505092915050565b613598816132ca565b82525050565b60006020820190506135b3600083018461358f565b92915050565b600060c0820190506135ce600083018961358f565b81810360208301526135e08188613393565b905081810360408301526135f48187613393565b9050613603606083018661358f565b613610608083018561358f565b61361d60a083018461358f565b979650505050505050565b61363181613204565b811461363c57600080fd5b50565b60008135905061364e81613628565b92915050565b6000806040838503121561366b5761366a613175565b5b6000613679858286016134ba565b925050602061368a8582860161363f565b9150509250929050565b600060a08201905081810360008301526136ae8188613393565b905081810360208301526136c28187613393565b90506136d1604083018661358f565b6136de606083018561358f565b6136eb608083018461358f565b9695505050505050565b600080fd5b600080fd5b7f4e487b7100000000000000000000000000000000000000000000000000000000600052604160045260246000fd5b61373782613280565b810181811067ffffffffffffffff82111715613756576137556136ff565b5b80604052505050565b600061376961316b565b9050613775828261372e565b919050565b600067ffffffffffffffff821115613795576137946136ff565b5b61379e82613280565b9050602081019050919050565b82818337600083830152505050565b60006137cd6137c88461377a565b61375f565b9050828152602081018484840111156137e9576137e86136fa565b5b6137f48482856137ab565b509392505050565b600082601f830112613811576138106136f5565b5b81356138218482602086016137ba565b91505092915050565b6000806000806080858703121561384457613843613175565b5b6000613852878288016134ba565b9450506020613863878288016134ba565b935050604061387487828801613405565b925050606085013567ffffffffffffffff8111156138955761389461317a565b5b6138a1878288016137fc565b91505092959194509250565b600081519050919050565b600082825260208201905092915050565b6000819050602082019050919050565b600060c0830160008301516138f160008601826132d4565b50602083015184820360208601526139098282613291565b915050604083015184820360408601526139238282613291565b915050606083015161393860608601826132d4565b50608083015161394b60808601826132d4565b5060a083015161395e60a08601826132d4565b508091505092915050565b600061397583836138d9565b905092915050565b6000602082019050919050565b6000613995826138ad565b61399f81856138b8565b9350836020820285016139b1856138c9565b8060005b858110156139ed57848403895281516139ce8582613969565b94506139d98361397d565b925060208a019950506001810190506139b5565b50829750879550505050505092915050565b60006020820190508181036000830152613a19818461398a565b905092915050565b600060c083016000830151613a3960008601826132d4565b5060208301518482036020860152613a518282613291565b91505060408301518482036040860152613a6b8282613291565b9150506060830151613a8060608601826132d4565b506080830151613a9360808601826132d4565b5060a0830151613aa660a08601826132d4565b508091505092915050565b60006020820190508181036000830152613acb8184613a21565b905092915050565b60008060408385031215613aea57613ae9613175565b5b6000613af8858286016134ba565b9250506020613b09858286016134ba565b9150509250929050565b7f4e487b7100000000000000000000000000000000000000000000000000000000600052602260045260246000fd5b60006002820490506001821680613b5a57607f821691505b602082108103613b6d57613b6c613b13565b5b50919050565b7f4552433732313a20617070726f76616c20746f2063757272656e74206f776e6560008201527f7200000000000000000000000000000000000000000000000000000000000000602082015250565b6000613bcf602183613382565b9150613bda82613b73565b604082019050919050565b60006020820190508181036000830152613bfe81613bc2565b9050919050565b7f4552433732313a20617070726f76652063616c6c6572206973206e6f7420746f60008201527f6b656e206f776e6572206f7220617070726f76656420666f7220616c6c000000602082015250565b6000613c61603d83613382565b9150613c6c82613c05565b604082019050919050565b60006020820190508181036000830152613c9081613c54565b9050919050565b7f4552433732313a2063616c6c6572206973206e6f7420746f6b656e206f776e6560008201527f72206f7220617070726f76656400000000000000000000000000000000000000602082015250565b6000613cf3602d83613382565b9150613cfe82613c97565b604082019050919050565b60006020820190508181036000830152613d2281613ce6565b9050919050565b7f4552433732313a20696e76616c696420746f6b656e2049440000000000000000600082015250565b6000613d5f601883613382565b9150613d6a82613d29565b602082019050919050565b60006020820190508181036000830152613d8e81613d52565b9050919050565b7f4552433732313a2061646472657373207a65726f206973206e6f74206120766160008201527f6c6964206f776e65720000000000000000000000000000000000000000000000602082015250565b6000613df1602983613382565b9150613dfc82613d95565b604082019050919050565b60006020820190508181036000830152613e2081613de4565b9050919050565b600081905092915050565b7f7b226e616d65223a202200000000000000000000000000000000000000000000600082015250565b6000613e68600a83613e27565b9150613e7382613e32565b600a82019050919050565b6000613e898261323a565b613e938185613e27565b9350613ea3818560208601613256565b80840191505092915050565b7f202d204e46542023000000000000000000000000000000000000000000000000600082015250565b6000613ee5600883613e27565b9150613ef082613eaf565b600882019050919050565b7f222c20226465736372697074696f6e223a20225468697320697320616e204e4660008201527f542074686174206c6574732070656f706c6520706c617920696e20746865206760208201527f616d652056616e696c6c61205261696465727321204d6164652062792041647660408201527f336e747572652e78797a2e222c2022696d616765223a2022697066733a2f2f00606082015250565b6000613fa3607f83613e27565b9150613fae82613efb565b607f82019050919050565b7f222c202261747472696275746573223a205b207b202274726169745f7479706560008201527f223a20224865616c746820506f696e7473222c202276616c7565223a20000000602082015250565b6000614015603d83613e27565b915061402082613fb9565b603d82019050919050565b7f2c20226d61785f76616c7565223a000000000000000000000000000000000000600082015250565b6000614061600e83613e27565b915061406c8261402b565b600e82019050919050565b7f7d2c207b202274726169745f74797065223a202241747461636b2044616d616760008201527f65222c202276616c7565223a2000000000000000000000000000000000000000602082015250565b60006140d3602d83613e27565b91506140de82614077565b602d82019050919050565b7f7d205d7d00000000000000000000000000000000000000000000000000000000600082015250565b600061411f600483613e27565b915061412a826140e9565b600482019050919050565b600061414082613e5b565b915061414c8289613e7e565b915061415782613ed8565b91506141638288613e7e565b915061416e82613f96565b915061417a8287613e7e565b915061418582614008565b91506141918286613e7e565b915061419c82614054565b91506141a88285613e7e565b91506141b3826140c6565b91506141bf8284613e7e565b91506141ca82614112565b9150819050979650505050505050565b7f646174613a6170706c69636174696f6e2f6a736f6e3b6261736536342c000000600082015250565b6000614210601d83613e27565b915061421b826141da565b601d82019050919050565b600061423182614203565b915061423d8284613e7e565b915081905092915050565b7f4572726f723a20636861726163746572206d757374206861766520485020746f60008201527f2061747461636b20626f73732e00000000000000000000000000000000000000602082015250565b60006142a4602d83613382565b91506142af82614248565b604082019050919050565b600060208201905081810360008301526142d381614297565b9050919050565b7f4572726f723a20626f7373206d757374206861766520485020746f206174746160008201527f636b206368617261637465722e00000000000000000000000000000000000000602082015250565b6000614336602d83613382565b9150614341826142da565b604082019050919050565b6000602082019050818103600083015261436581614329565b9050919050565b7f4e487b7100000000000000000000000000000000000000000000000000000000600052601160045260246000fd5b60006143a6826132ca565b91506143b1836132ca565b92508282039050818111156143c9576143c861436c565b5b92915050565b60006060820190506143e46000830186613479565b6143f1602083018561358f565b6143fe604083018461358f565b949350505050565b7f4e487b7100000000000000000000000000000000000000000000000000000000600052603260045260246000fd5b60008190508160005260206000209050919050565b60006020601f8301049050919050565b600082821b905092915050565b6000600883026144977fffffffffffffffffffffffffffffffffffffffffffffffffffffffffffffffff8261445a565b6144a1868361445a565b95508019841693508086168417925050509392505050565b6000819050919050565b60006144de6144d96144d4846132ca565b6144b9565b6132ca565b9050919050565b6000819050919050565b6144f8836144c3565b61450c614504826144e5565b848454614467565b825550505050565b600090565b614521614514565b61452c8184846144ef565b505050565b5b8181101561455057614545600082614519565b600181019050614532565b5050565b601f8211156145955761456681614435565b61456f8461444a565b8101602085101561457e578190505b61459261458a8561444a565b830182614531565b50505b505050565b600082821c905092915050565b60006145b86000198460080261459a565b1980831691505092915050565b60006145d183836145a7565b9150826002028217905092915050565b6145ea8261323a565b67ffffffffffffffff811115614603576146026136ff565b5b61460d8254613b42565b614618828285614554565b600060209050601f83116001811461464b5760008415614639578287015190505b61464385826145c5565b8655506146ab565b601f19841661465986614435565b60005b828110156146815784890151825560018201915060208501945060208101905061465c565b8683101561469e578489015161469a601f8916826145a7565b8355505b6001600288020188555050505b505050505050565b600060808201905081810360008301526146cd8187613393565b905081810360208301526146e18186613393565b90506146f0604083018561358f565b81810360608301526147028184613393565b905095945050505050565b7f4552433732313a207472616e736665722066726f6d20696e636f72726563742060008201527f6f776e6572000000000000000000000000000000000000000000000000000000602082015250565b6000614769602583613382565b91506147748261470d565b604082019050919050565b600060208201905081810360008301526147988161475c565b9050919050565b7f4552433732313a207472616e7366657220746f20746865207a65726f2061646460008201527f7265737300000000000000000000000000000000000000000000000000000000602082015250565b60006147fb602483613382565b91506148068261479f565b604082019050919050565b6000602082019050818103600083015261482a816147ee565b9050919050565b7f4552433732313a20617070726f766520746f2063616c6c657200000000000000600082015250565b6000614867601983613382565b915061487282614831565b602082019050919050565b600060208201905081810360008301526148968161485a565b9050919050565b7f4552433732313a207472616e7366657220746f206e6f6e20455243373231526560008201527f63656976657220696d706c656d656e7465720000000000000000000000000000602082015250565b60006148f9603283613382565b91506149048261489d565b604082019050919050565b60006020820190508181036000830152614928816148ec565b9050919050565b7f4e487b7100000000000000000000000000000000000000000000000000000000600052601260045260246000fd5b6000614969826132ca565b9150614974836132ca565b925082820190508082111561498c5761498b61436c565b5b92915050565b600061499d826132ca565b91506149a8836132ca565b9250826149b8576149b761492f565b5b828204905092915050565b60006149ce826132ca565b91506149d9836132ca565b92508282026149e7816132ca565b915082820484148315176149fe576149fd61436c565b5b5092915050565b60006080820190508181036000830152614a1f8187613393565b90508181036020830152614a338186613393565b9050614a42604083018561358f565b614a4f606083018461358f565b95945050505050565b6000614a63826132ca565b91507fffffffffffffffffffffffffffffffffffffffffffffffffffffffffffffffff8203614a9557614a9461436c565b5b600182019050919050565b6000819050919050565b614abb614ab6826132ca565b614aa0565b82525050565b60008160601b9050919050565b6000614ad982614ac1565b9050919050565b6000614aeb82614ace565b9050919050565b614b03614afe82613467565b614ae0565b82525050565b6000614b158286614aaa565b602082019150614b258285614af2565b601482019150614b358284614aaa565b602082019150819050949350505050565b6000614b51826132ca565b9150614b5c836132ca565b925082614b6c57614b6b61492f565b5b828206905092915050565b60006060820190508181036000830152614b918186613393565b90508181036020830152614ba58185613393565b9050614bb4604083018461358f565b949350505050565b60006040820190508181036000830152614bd68185613393565b90508181036020830152614bea8184613393565b90509392505050565b60006040820190508181036000830152614c0d8185613393565b9050614c1c602083018461358f565b9392505050565b60006060820190508181036000830152614c3d8186613393565b9050614c4c602083018561358f565b614c59604083018461358f565b949350505050565b600081519050919050565b600082825260208201905092915050565b6000614c8882614c61565b614c928185614c6c565b9350614ca2818560208601613256565b614cab81613280565b840191505092915050565b6000608082019050614ccb6000830187613479565b614cd86020830186613479565b614ce5604083018561358f565b8181036060830152614cf78184614c7d565b905095945050505050565b600081519050614d11816131ab565b92915050565b600060208284031215614d2d57614d2c613175565b5b6000614d3b84828501614d02565b91505092915050565b7f4552433732313a206d696e7420746f20746865207a65726f2061646472657373600082015250565b6000614d7a602083613382565b9150614d8582614d44565b602082019050919050565b60006020820190508181036000830152614da981614d6d565b9050919050565b7f4552433732313a20746f6b656e20616c7265616479206d696e74656400000000600082015250565b6000614de6601c83613382565b9150614df182614db0565b602082019050919050565b60006020820190508181036000830152614e1581614dd9565b905091905056fe25732061747461636b656420626f73732e204e657720626f73732068703a202573506c617965722061747461636b656420626f73732e204e657720626f73732068703a2025734142434445464748494a4b4c4d4e4f505152535455565758595a6162636465666768696a6b6c6d6e6f707172737475767778797a303132333435363738392b2f426f73732061747461636b656420706c617965722e204e657720706c617965722068703a2025730a4d696e746564204e465420772f20746f6b656e496420257320616e6420636861726163746572496e6465782025730a506c6179657220772f206368617261637465722025732061626f757420746f2061747461636b2e2048617320257320485020616e64202573204144a2646970667358221220d9a5bfe853c79e262ee3d4a5e83ed27041283a9eff7a95bd60d5c166468abbe364736f6c63430008110033446f6e6520696e697469616c697a696e6720257320772f2048502025732c20696d67202573446f6e6520696e697469616c697a696e6720626f737320257320772f2048502025732c20696d67202573",
  "linkReferences": {},
  "deployedLinkReferences": {}
}