{
  "_format": "hh-sol-artifact-1",
  "contractName": "VanillaRaiders",
  "sourceName": "contracts/VanillaRaiders.sol",
  "abi": [
    {
      "inputs": [
        {
          "internalType": "string[]",
          "name": "characterNames",
          "type": "string[]"
        },
        {
          "internalType": "string[]",
          "name": "characterImageURIs",
          "type": "string[]"
        },
        {
          "internalType": "uint256[]",
          "name": "characterHp",
          "type": "uint256[]"
        },
        {
          "internalType": "uint256[]",
          "name": "characterAttackDmg",
          "type": "uint256[]"
        },
        {
          "internalType": "string",
          "name": "bossName",
          "type": "string"
        },
        {
          "internalType": "string",
          "name": "bossImageURI",
          "type": "string"
        },
        {
          "internalType": "uint256",
          "name": "bossHp",
          "type": "uint256"
        },
        {
          "internalType": "uint256",
          "name": "bossAttackDamage",
          "type": "uint256"
        }
      ],
      "stateMutability": "nonpayable",
      "type": "constructor"
    },
    {
      "anonymous": false,
      "inputs": [
        {
          "indexed": true,
          "internalType": "address",
          "name": "owner",
          "type": "address"
        },
        {
          "indexed": true,
          "internalType": "address",
          "name": "approved",
          "type": "address"
        },
        {
          "indexed": true,
          "internalType": "uint256",
          "name": "tokenId",
          "type": "uint256"
        }
      ],
      "name": "Approval",
      "type": "event"
    },
    {
      "anonymous": false,
      "inputs": [
        {
          "indexed": true,
          "internalType": "address",
          "name": "owner",
          "type": "address"
        },
        {
          "indexed": true,
          "internalType": "address",
          "name": "operator",
          "type": "address"
        },
        {
          "indexed": false,
          "internalType": "bool",
          "name": "approved",
          "type": "bool"
        }
      ],
      "name": "ApprovalForAll",
      "type": "event"
    },
    {
      "anonymous": false,
      "inputs": [
        {
          "indexed": false,
          "internalType": "address",
          "name": "sender",
          "type": "address"
        },
        {
          "indexed": false,
          "internalType": "uint256",
          "name": "newBossHp",
          "type": "uint256"
        },
        {
          "indexed": false,
          "internalType": "uint256",
          "name": "newPlayerHp",
          "type": "uint256"
        }
      ],
      "name": "AttackComplete",
      "type": "event"
    },
    {
      "anonymous": false,
      "inputs": [
        {
          "indexed": false,
          "internalType": "address",
          "name": "sender",
          "type": "address"
        },
        {
          "indexed": false,
          "internalType": "uint256",
          "name": "tokenId",
          "type": "uint256"
        },
        {
          "indexed": false,
          "internalType": "uint256",
          "name": "characterIndex",
          "type": "uint256"
        }
      ],
      "name": "CharacterNFTMinted",
      "type": "event"
    },
    {
      "anonymous": false,
      "inputs": [
        {
          "indexed": true,
          "internalType": "address",
          "name": "from",
          "type": "address"
        },
        {
          "indexed": true,
          "internalType": "address",
          "name": "to",
          "type": "address"
        },
        {
          "indexed": true,
          "internalType": "uint256",
          "name": "tokenId",
          "type": "uint256"
        }
      ],
      "name": "Transfer",
      "type": "event"
    },
    {
      "inputs": [
        {
          "internalType": "address",
          "name": "to",
          "type": "address"
        },
        {
          "internalType": "uint256",
          "name": "tokenId",
          "type": "uint256"
        }
      ],
      "name": "approve",
      "outputs": [],
      "stateMutability": "nonpayable",
      "type": "function"
    },
    {
      "inputs": [],
      "name": "attackBoss",
      "outputs": [],
      "stateMutability": "nonpayable",
      "type": "function"
    },
    {
      "inputs": [
        {
          "internalType": "address",
          "name": "owner",
          "type": "address"
        }
      ],
      "name": "balanceOf",
      "outputs": [
        {
          "internalType": "uint256",
          "name": "",
          "type": "uint256"
        }
      ],
      "stateMutability": "view",
      "type": "function"
    },
    {
      "inputs": [],
      "name": "bigBoss",
      "outputs": [
        {
          "internalType": "string",
          "name": "name",
          "type": "string"
        },
        {
          "internalType": "string",
          "name": "imageURI",
          "type": "string"
        },
        {
          "internalType": "uint256",
          "name": "hp",
          "type": "uint256"
        },
        {
          "internalType": "uint256",
          "name": "maxHp",
          "type": "uint256"
        },
        {
          "internalType": "uint256",
          "name": "attackDamage",
          "type": "uint256"
        }
      ],
      "stateMutability": "view",
      "type": "function"
    },
    {
      "inputs": [],
      "name": "checkIfUserHasNFT",
      "outputs": [
        {
          "components": [
            {
              "internalType": "uint256",
              "name": "characterIndex",
              "type": "uint256"
            },
            {
              "internalType": "string",
              "name": "name",
              "type": "string"
            },
            {
              "internalType": "string",
              "name": "imageURI",
              "type": "string"
            },
            {
              "internalType": "uint256",
              "name": "hp",
              "type": "uint256"
            },
            {
              "internalType": "uint256",
              "name": "maxHp",
              "type": "uint256"
            },
            {
              "internalType": "uint256",
              "name": "attackDamage",
              "type": "uint256"
            }
          ],
          "internalType": "struct VanillaRaiders.CharacterAttributes",
          "name": "",
          "type": "tuple"
        }
      ],
      "stateMutability": "view",
      "type": "function"
    },
    {
      "inputs": [],
      "name": "getAllDefaultCharacters",
      "outputs": [
        {
          "components": [
            {
              "internalType": "uint256",
              "name": "characterIndex",
              "type": "uint256"
            },
            {
              "internalType": "string",
              "name": "name",
              "type": "string"
            },
            {
              "internalType": "string",
              "name": "imageURI",
              "type": "string"
            },
            {
              "internalType": "uint256",
              "name": "hp",
              "type": "uint256"
            },
            {
              "internalType": "uint256",
              "name": "maxHp",
              "type": "uint256"
            },
            {
              "internalType": "uint256",
              "name": "attackDamage",
              "type": "uint256"
            }
          ],
          "internalType": "struct VanillaRaiders.CharacterAttributes[]",
          "name": "",
          "type": "tuple[]"
        }
      ],
      "stateMutability": "view",
      "type": "function"
    },
    {
      "inputs": [
        {
          "internalType": "uint256",
          "name": "tokenId",
          "type": "uint256"
        }
      ],
      "name": "getApproved",
      "outputs": [
        {
          "internalType": "address",
          "name": "",
          "type": "address"
        }
      ],
      "stateMutability": "view",
      "type": "function"
    },
    {
      "inputs": [],
      "name": "getBigBoss",
      "outputs": [
        {
          "components": [
            {
              "internalType": "string",
              "name": "name",
              "type": "string"
            },
            {
              "internalType": "string",
              "name": "imageURI",
              "type": "string"
            },
            {
              "internalType": "uint256",
              "name": "hp",
              "type": "uint256"
            },
            {
              "internalType": "uint256",
              "name": "maxHp",
              "type": "uint256"
            },
            {
              "internalType": "uint256",
              "name": "attackDamage",
              "type": "uint256"
            }
          ],
          "internalType": "struct VanillaRaiders.BigBoss",
          "name": "",
          "type": "tuple"
        }
      ],
      "stateMutability": "view",
      "type": "function"
    },
    {
      "inputs": [
        {
          "internalType": "address",
          "name": "owner",
          "type": "address"
        },
        {
          "internalType": "address",
          "name": "operator",
          "type": "address"
        }
      ],
      "name": "isApprovedForAll",
      "outputs": [
        {
          "internalType": "bool",
          "name": "",
          "type": "bool"
        }
      ],
      "stateMutability": "view",
      "type": "function"
    },
    {
      "inputs": [
        {
          "internalType": "uint256",
          "name": "_characterIndex",
          "type": "uint256"
        }
      ],
      "name": "mintCharacterNFT",
      "outputs": [],
      "stateMutability": "nonpayable",
      "type": "function"
    },
    {
      "inputs": [],
      "name": "name",
      "outputs": [
        {
          "internalType": "string",
          "name": "",
          "type": "string"
        }
      ],
      "stateMutability": "view",
      "type": "function"
    },
    {
      "inputs": [
        {
          "internalType": "uint256",
          "name": "",
          "type": "uint256"
        }
      ],
      "name": "nftHolderAttributes",
      "outputs": [
        {
          "internalType": "uint256",
          "name": "characterIndex",
          "type": "uint256"
        },
        {
          "internalType": "string",
          "name": "name",
          "type": "string"
        },
        {
          "internalType": "string",
          "name": "imageURI",
          "type": "string"
        },
        {
          "internalType": "uint256",
          "name": "hp",
          "type": "uint256"
        },
        {
          "internalType": "uint256",
          "name": "maxHp",
          "type": "uint256"
        },
        {
          "internalType": "uint256",
          "name": "attackDamage",
          "type": "uint256"
        }
      ],
      "stateMutability": "view",
      "type": "function"
    },
    {
      "inputs": [
        {
          "internalType": "address",
          "name": "",
          "type": "address"
        }
      ],
      "name": "nftHolders",
      "outputs": [
        {
          "internalType": "uint256",
          "name": "",
          "type": "uint256"
        }
      ],
      "stateMutability": "view",
      "type": "function"
    },
    {
      "inputs": [
        {
          "internalType": "uint256",
          "name": "tokenId",
          "type": "uint256"
        }
      ],
      "name": "ownerOf",
      "outputs": [
        {
          "internalType": "address",
          "name": "",
          "type": "address"
        }
      ],
      "stateMutability": "view",
      "type": "function"
    },
    {
      "inputs": [
        {
          "internalType": "address",
          "name": "from",
          "type": "address"
        },
        {
          "internalType": "address",
          "name": "to",
          "type": "address"
        },
        {
          "internalType": "uint256",
          "name": "tokenId",
          "type": "uint256"
        }
      ],
      "name": "safeTransferFrom",
      "outputs": [],
      "stateMutability": "nonpayable",
      "type": "function"
    },
    {
      "inputs": [
        {
          "internalType": "address",
          "name": "from",
          "type": "address"
        },
        {
          "internalType": "address",
          "name": "to",
          "type": "address"
        },
        {
          "internalType": "uint256",
          "name": "tokenId",
          "type": "uint256"
        },
        {
          "internalType": "bytes",
          "name": "data",
          "type": "bytes"
        }
      ],
      "name": "safeTransferFrom",
      "outputs": [],
      "stateMutability": "nonpayable",
      "type": "function"
    },
    {
      "inputs": [
        {
          "internalType": "address",
          "name": "operator",
          "type": "address"
        },
        {
          "internalType": "bool",
          "name": "approved",
          "type": "bool"
        }
      ],
      "name": "setApprovalForAll",
      "outputs": [],
      "stateMutability": "nonpayable",
      "type": "function"
    },
    {
      "inputs": [
        {
          "internalType": "bytes4",
          "name": "interfaceId",
          "type": "bytes4"
        }
      ],
      "name": "supportsInterface",
      "outputs": [
        {
          "internalType": "bool",
          "name": "",
          "type": "bool"
        }
      ],
      "stateMutability": "view",
      "type": "function"
    },
    {
      "inputs": [],
      "name": "symbol",
      "outputs": [
        {
          "internalType": "string",
          "name": "",
          "type": "string"
        }
      ],
      "stateMutability": "view",
      "type": "function"
    },
    {
      "inputs": [
        {
          "internalType": "uint256",
          "name": "_tokenId",
          "type": "uint256"
        }
      ],
      "name": "tokenURI",
      "outputs": [
        {
          "internalType": "string",
          "name": "",
          "type": "string"
        }
      ],
      "stateMutability": "view",
      "type": "function"
    },
    {
      "inputs": [
        {
          "internalType": "address",
          "name": "from",
          "type": "address"
        },
        {
          "internalType": "address",
          "name": "to",
          "type": "address"
        },
        {
          "internalType": "uint256",
          "name": "tokenId",
          "type": "uint256"
        }
      ],
      "name": "transferFrom",
      "outputs": [],
      "stateMutability": "nonpayable",
      "type": "function"
    }
  ],
  "bytecode": "0x60806040526000600f553480156200001657600080fd5b50604051620060673803806200606783398181016040528101906200003c919062000a90565b6040518060400160405280600f81526020017f56616e696c6c61205261696465727300000000000000000000000000000000008152506040518060400160405280600781526020017f52414944455253000000000000000000000000000000000000000000000000008152508160009081620000b9919062000e54565b508060019081620000cb919062000e54565b5050506040518060a0016040528085815260200184815260200183815260200183815260200182815250600a60008201518160000190816200010e919062000e54565b50602082015181600101908162000126919062000e54565b50604082015181600201556060820151816003015560808201518160040155905050620002a96040518060600160405280602a81526020016200603d602a9139600a6000018054620001789062000c4d565b80601f0160208091040260200160405190810160405280929190818152602001828054620001a69062000c4d565b8015620001f75780601f10620001cb57610100808354040283529160200191620001f7565b820191906000526020600020905b815481529060010190602001808311620001d957829003601f168201915b5050505050600a60020154600a6001018054620002149062000c4d565b80601f0160208091040260200160405190810160405280929190818152602001828054620002429062000c4d565b8015620002935780601f10620002675761010080835404028352916020019162000293565b820191906000526020600020905b8154815290600101906020018083116200027557829003601f168201915b50505050506200060560201b62001c361760201c565b60005b8851811015620005df5760076040518060c001604052808381526020018b8481518110620002df57620002de62000f3b565b5b602002602001015181526020018a848151811062000302576200030162000f3b565b5b6020026020010151815260200189848151811062000325576200032462000f3b565b5b6020026020010151815260200189848151811062000348576200034762000f3b565b5b602002602001015181526020018884815181106200036b576200036a62000f3b565b5b60200260200101518152509080600181540180825580915050600190039060005260206000209060060201600090919091909150600082015181600001556020820151816001019081620003c0919062000e54565b506040820151816002019081620003d8919062000e54565b50606082015181600301556080820151816004015560a08201518160050155505060006007828154811062000412576200041162000f3b565b5b90600052602060002090600602016040518060c001604052908160008201548152602001600182018054620004479062000c4d565b80601f0160208091040260200160405190810160405280929190818152602001828054620004759062000c4d565b8015620004c65780601f106200049a57610100808354040283529160200191620004c6565b820191906000526020600020905b815481529060010190602001808311620004a857829003601f168201915b50505050508152602001600282018054620004e19062000c4d565b80601f01602080910402602001604051908101604052809291908181526020018280546200050f9062000c4d565b8015620005605780601f10620005345761010080835404028352916020019162000560565b820191906000526020600020905b8154815290600101906020018083116200054257829003601f168201915b5050505050815260200160038201548152602001600482015481526020016005820154815250509050620005c760405180606001604052806025815260200162006018602591398260200151836060015184604001516200060560201b62001c361760201c565b50600181620005d7919062000f99565b9050620002ac565b50620005f76006620006b160201b62001cd81760201c565b505050505050505062001099565b620006ab8484848460405160240162000622949392919062001037565b6040516020818303038152906040527f5d1a971a000000000000000000000000000000000000000000000000000000007bffffffffffffffffffffffffffffffffffffffffffffffffffffffff19166020820180517bffffffffffffffffffffffffffffffffffffffffffffffffffffffff8381831617835250505050620006c760201b60201c565b50505050565b6001816000016000828254019250508190555050565b60008151905060006a636f6e736f6c652e6c6f679050602083016000808483855afa5050505050565b6000604051905090565b600080fd5b600080fd5b600080fd5b6000601f19601f8301169050919050565b7f4e487b7100000000000000000000000000000000000000000000000000000000600052604160045260246000fd5b620007548262000709565b810181811067ffffffffffffffff821117156200077657620007756200071a565b5b80604052505050565b60006200078b620006f0565b905062000799828262000749565b919050565b600067ffffffffffffffff821115620007bc57620007bb6200071a565b5b602082029050602081019050919050565b600080fd5b600080fd5b600067ffffffffffffffff821115620007f557620007f46200071a565b5b620008008262000709565b9050602081019050919050565b60005b838110156200082d57808201518184015260208101905062000810565b60008484015250505050565b6000620008506200084a84620007d7565b6200077f565b9050828152602081018484840111156200086f576200086e620007d2565b5b6200087c8482856200080d565b509392505050565b600082601f8301126200089c576200089b62000704565b5b8151620008ae84826020860162000839565b91505092915050565b6000620008ce620008c8846200079e565b6200077f565b90508083825260208201905060208402830185811115620008f457620008f3620007cd565b5b835b818110156200094257805167ffffffffffffffff8111156200091d576200091c62000704565b5b8086016200092c898262000884565b85526020850194505050602081019050620008f6565b5050509392505050565b600082601f83011262000964576200096362000704565b5b815162000976848260208601620008b7565b91505092915050565b600067ffffffffffffffff8211156200099d576200099c6200071a565b5b602082029050602081019050919050565b6000819050919050565b620009c381620009ae565b8114620009cf57600080fd5b50565b600081519050620009e381620009b8565b92915050565b600062000a00620009fa846200097f565b6200077f565b9050808382526020820190506020840283018581111562000a265762000a25620007cd565b5b835b8181101562000a53578062000a3e8882620009d2565b84526020840193505060208101905062000a28565b5050509392505050565b600082601f83011262000a755762000a7462000704565b5b815162000a87848260208601620009e9565b91505092915050565b600080600080600080600080610100898b03121562000ab45762000ab3620006fa565b5b600089015167ffffffffffffffff81111562000ad55762000ad4620006ff565b5b62000ae38b828c016200094c565b985050602089015167ffffffffffffffff81111562000b075762000b06620006ff565b5b62000b158b828c016200094c565b975050604089015167ffffffffffffffff81111562000b395762000b38620006ff565b5b62000b478b828c0162000a5d565b965050606089015167ffffffffffffffff81111562000b6b5762000b6a620006ff565b5b62000b798b828c0162000a5d565b955050608089015167ffffffffffffffff81111562000b9d5762000b9c620006ff565b5b62000bab8b828c0162000884565b94505060a089015167ffffffffffffffff81111562000bcf5762000bce620006ff565b5b62000bdd8b828c0162000884565b93505060c062000bf08b828c01620009d2565b92505060e062000c038b828c01620009d2565b9150509295985092959890939650565b600081519050919050565b7f4e487b7100000000000000000000000000000000000000000000000000000000600052602260045260246000fd5b6000600282049050600182168062000c6657607f821691505b60208210810362000c7c5762000c7b62000c1e565b5b50919050565b60008190508160005260206000209050919050565b60006020601f8301049050919050565b600082821b905092915050565b60006008830262000ce67fffffffffffffffffffffffffffffffffffffffffffffffffffffffffffffffff8262000ca7565b62000cf2868362000ca7565b95508019841693508086168417925050509392505050565b6000819050919050565b600062000d3562000d2f62000d2984620009ae565b62000d0a565b620009ae565b9050919050565b6000819050919050565b62000d518362000d14565b62000d6962000d608262000d3c565b84845462000cb4565b825550505050565b600090565b62000d8062000d71565b62000d8d81848462000d46565b505050565b5b8181101562000db55762000da960008262000d76565b60018101905062000d93565b5050565b601f82111562000e045762000dce8162000c82565b62000dd98462000c97565b8101602085101562000de9578190505b62000e0162000df88562000c97565b83018262000d92565b50505b505050565b600082821c905092915050565b600062000e296000198460080262000e09565b1980831691505092915050565b600062000e44838362000e16565b9150826002028217905092915050565b62000e5f8262000c13565b67ffffffffffffffff81111562000e7b5762000e7a6200071a565b5b62000e87825462000c4d565b62000e9482828562000db9565b600060209050601f83116001811462000ecc576000841562000eb7578287015190505b62000ec3858262000e36565b86555062000f33565b601f19841662000edc8662000c82565b60005b8281101562000f065784890151825560018201915060208501945060208101905062000edf565b8683101562000f26578489015162000f22601f89168262000e16565b8355505b6001600288020188555050505b505050505050565b7f4e487b7100000000000000000000000000000000000000000000000000000000600052603260045260246000fd5b7f4e487b7100000000000000000000000000000000000000000000000000000000600052601160045260246000fd5b600062000fa682620009ae565b915062000fb383620009ae565b925082820190508082111562000fce5762000fcd62000f6a565b5b92915050565b600082825260208201905092915050565b600062000ff28262000c13565b62000ffe818562000fd4565b9350620010108185602086016200080d565b6200101b8162000709565b840191505092915050565b6200103181620009ae565b82525050565b6000608082019050818103600083015262001053818762000fe5565b9050818103602083015262001069818662000fe5565b90506200107a604083018562001026565b81810360608301526200108e818462000fe5565b905095945050505050565b614f6f80620010a96000396000f3fe608060405234801561001057600080fd5b50600436106101375760003560e01c806395d89b41116100b8578063b953084e1161007c578063b953084e14610369578063c87b56dd14610387578063c8cf27f4146103b7578063d4f24c5b146103d5578063e985e9c5146103df578063f8b81ef71461040f57610137565b806395d89b41146102bc57806398da4c95146102da578063a22cb4651461030f578063a9c326791461032b578063b88d4fde1461034d57610137565b806323b872dd116100ff57806323b872dd146101f457806342842e0e146102105780636352211e1461022c57806370a082311461025c5780637df124a11461028c57610137565b806301ffc9a71461013c5780630665f9611461016c57806306fdde031461018a578063081812fc146101a8578063095ea7b3146101d8575b600080fd5b610156600480360381019061015191906131d8565b61042b565b6040516101639190613220565b60405180910390f35b61017461050d565b6040516101819190613361565b60405180910390f35b610192610669565b60405161019f91906133cd565b60405180910390f35b6101c260048036038101906101bd919061341b565b6106fb565b6040516101cf9190613489565b60405180910390f35b6101f260048036038101906101ed91906134d0565b610741565b005b61020e60048036038101906102099190613510565b610858565b005b61022a60048036038101906102259190613510565b6108b8565b005b6102466004803603810190610241919061341b565b6108d8565b6040516102539190613489565b60405180910390f35b61027660048036038101906102719190613563565b61095e565b604051610283919061359f565b60405180910390f35b6102a660048036038101906102a19190613563565b610a15565b6040516102b3919061359f565b60405180910390f35b6102c4610a2d565b6040516102d191906133cd565b60405180910390f35b6102f460048036038101906102ef919061341b565b610abf565b604051610306969594939291906135ba565b60405180910390f35b61032960048036038101906103249190613655565b610c0b565b005b610333610c21565b604051610344959493929190613695565b60405180910390f35b6103676004803603810190610362919061382b565b610d55565b005b610371610db7565b60405161037e9190613a00565b60405180910390f35b6103a1600480360381019061039c919061341b565b610f62565b6040516103ae91906133cd565b60405180910390f35b6103bf61117d565b6040516103cc9190613ab2565b60405180910390f35b6103dd611355565b005b6103f960048036038101906103f49190613ad4565b61187a565b6040516104069190613220565b60405180910390f35b6104296004803603810190610424919061341b565b61190e565b005b60007f80ac58cd000000000000000000000000000000000000000000000000000000007bffffffffffffffffffffffffffffffffffffffffffffffffffffffff1916827bffffffffffffffffffffffffffffffffffffffffffffffffffffffff191614806104f657507f5b5e139f000000000000000000000000000000000000000000000000000000007bffffffffffffffffffffffffffffffffffffffffffffffffffffffff1916827bffffffffffffffffffffffffffffffffffffffffffffffffffffffff1916145b80610506575061050582611cee565b5b9050919050565b610515613107565b600a6040518060a001604052908160008201805461053290613b43565b80601f016020809104026020016040519081016040528092919081815260200182805461055e90613b43565b80156105ab5780601f10610580576101008083540402835291602001916105ab565b820191906000526020600020905b81548152906001019060200180831161058e57829003601f168201915b505050505081526020016001820180546105c490613b43565b80601f01602080910402602001604051908101604052809291908181526020018280546105f090613b43565b801561063d5780601f106106125761010080835404028352916020019161063d565b820191906000526020600020905b81548152906001019060200180831161062057829003601f168201915b505050505081526020016002820154815260200160038201548152602001600482015481525050905090565b60606000805461067890613b43565b80601f01602080910402602001604051908101604052809291908181526020018280546106a490613b43565b80156106f15780601f106106c6576101008083540402835291602001916106f1565b820191906000526020600020905b8154815290600101906020018083116106d457829003601f168201915b5050505050905090565b600061070682611d58565b6004600083815260200190815260200160002060009054906101000a900473ffffffffffffffffffffffffffffffffffffffff169050919050565b600061074c826108d8565b90508073ffffffffffffffffffffffffffffffffffffffff168373ffffffffffffffffffffffffffffffffffffffff16036107bc576040517f08c379a00000000000000000000000000000000000000000000000000000000081526004016107b390613be6565b60405180910390fd5b8073ffffffffffffffffffffffffffffffffffffffff166107db611da3565b73ffffffffffffffffffffffffffffffffffffffff16148061080a575061080981610804611da3565b61187a565b5b610849576040517f08c379a000000000000000000000000000000000000000000000000000000000815260040161084090613c78565b60405180910390fd5b6108538383611dab565b505050565b610869610863611da3565b82611e64565b6108a8576040517f08c379a000000000000000000000000000000000000000000000000000000000815260040161089f90613d0a565b60405180910390fd5b6108b3838383611ef9565b505050565b6108d383838360405180602001604052806000815250610d55565b505050565b6000806108e4836121f2565b9050600073ffffffffffffffffffffffffffffffffffffffff168173ffffffffffffffffffffffffffffffffffffffff1603610955576040517f08c379a000000000000000000000000000000000000000000000000000000000815260040161094c90613d76565b60405180910390fd5b80915050919050565b60008073ffffffffffffffffffffffffffffffffffffffff168273ffffffffffffffffffffffffffffffffffffffff16036109ce576040517f08c379a00000000000000000000000000000000000000000000000000000000081526004016109c590613e08565b60405180910390fd5b600360008373ffffffffffffffffffffffffffffffffffffffff1673ffffffffffffffffffffffffffffffffffffffff168152602001908152602001600020549050919050565b60096020528060005260406000206000915090505481565b606060018054610a3c90613b43565b80601f0160208091040260200160405190810160405280929190818152602001828054610a6890613b43565b8015610ab55780601f10610a8a57610100808354040283529160200191610ab5565b820191906000526020600020905b815481529060010190602001808311610a9857829003601f168201915b5050505050905090565b6008602052806000526040600020600091509050806000015490806001018054610ae890613b43565b80601f0160208091040260200160405190810160405280929190818152602001828054610b1490613b43565b8015610b615780601f10610b3657610100808354040283529160200191610b61565b820191906000526020600020905b815481529060010190602001808311610b4457829003601f168201915b505050505090806002018054610b7690613b43565b80601f0160208091040260200160405190810160405280929190818152602001828054610ba290613b43565b8015610bef5780601f10610bc457610100808354040283529160200191610bef565b820191906000526020600020905b815481529060010190602001808311610bd257829003601f168201915b5050505050908060030154908060040154908060050154905086565b610c1d610c16611da3565b838361222f565b5050565b600a806000018054610c3290613b43565b80601f0160208091040260200160405190810160405280929190818152602001828054610c5e90613b43565b8015610cab5780601f10610c8057610100808354040283529160200191610cab565b820191906000526020600020905b815481529060010190602001808311610c8e57829003601f168201915b505050505090806001018054610cc090613b43565b80601f0160208091040260200160405190810160405280929190818152602001828054610cec90613b43565b8015610d395780601f10610d0e57610100808354040283529160200191610d39565b820191906000526020600020905b815481529060010190602001808311610d1c57829003601f168201915b5050505050908060020154908060030154908060040154905085565b610d66610d60611da3565b83611e64565b610da5576040517f08c379a0000000000000000000000000000000000000000000000000000000008152600401610d9c90613d0a565b60405180910390fd5b610db18484848461239b565b50505050565b60606007805480602002602001604051908101604052809291908181526020016000905b82821015610f5957838290600052602060002090600602016040518060c001604052908160008201548152602001600182018054610e1890613b43565b80601f0160208091040260200160405190810160405280929190818152602001828054610e4490613b43565b8015610e915780601f10610e6657610100808354040283529160200191610e91565b820191906000526020600020905b815481529060010190602001808311610e7457829003601f168201915b50505050508152602001600282018054610eaa90613b43565b80601f0160208091040260200160405190810160405280929190818152602001828054610ed690613b43565b8015610f235780601f10610ef857610100808354040283529160200191610f23565b820191906000526020600020905b815481529060010190602001808311610f0657829003601f168201915b50505050508152602001600382015481526020016004820154815260200160058201548152505081526020019060010190610ddb565b50505050905090565b60606000600860008481526020019081526020016000206040518060c001604052908160008201548152602001600182018054610f9e90613b43565b80601f0160208091040260200160405190810160405280929190818152602001828054610fca90613b43565b80156110175780601f10610fec57610100808354040283529160200191611017565b820191906000526020600020905b815481529060010190602001808311610ffa57829003601f168201915b5050505050815260200160028201805461103090613b43565b80601f016020809104026020016040519081016040528092919081815260200182805461105c90613b43565b80156110a95780601f1061107e576101008083540402835291602001916110a9565b820191906000526020600020905b81548152906001019060200180831161108c57829003601f168201915b505050505081526020016003820154815260200160048201548152602001600582015481525050905060006110e182606001516123f7565b905060006110f283608001516123f7565b905060006111038460a001516123f7565b905060006111498560200151611118896123f7565b876040015187878760405160200161113596959493929190614136565b6040516020818303038152906040526124c5565b905060008160405160200161115e9190614227565b6040516020818303038152906040529050809650505050505050919050565b611185613136565b6000600960003373ffffffffffffffffffffffffffffffffffffffff1673ffffffffffffffffffffffffffffffffffffffff168152602001908152602001600020549050600081111561134457600860008281526020019081526020016000206040518060c00160405290816000820154815260200160018201805461120a90613b43565b80601f016020809104026020016040519081016040528092919081815260200182805461123690613b43565b80156112835780601f1061125857610100808354040283529160200191611283565b820191906000526020600020905b81548152906001019060200180831161126657829003601f168201915b5050505050815260200160028201805461129c90613b43565b80601f01602080910402602001604051908101604052809291908181526020018280546112c890613b43565b80156113155780601f106112ea57610100808354040283529160200191611315565b820191906000526020600020905b8154815290600101906020018083116112f857829003601f168201915b505050505081526020016003820154815260200160048201548152602001600582015481525050915050611352565b61134c613136565b80925050505b90565b6000600960003373ffffffffffffffffffffffffffffffffffffffff1673ffffffffffffffffffffffffffffffffffffffff16815260200190815260200160002054905060006008600083815260200190815260200160002090506114686040518060600160405280603c8152602001614efe603c91398260010180546113db90613b43565b80601f016020809104026020016040519081016040528092919081815260200182805461140790613b43565b80156114545780601f1061142957610100808354040283529160200191611454565b820191906000526020600020905b81548152906001019060200180831161143757829003601f168201915b50505050508360030154846005015461265c565b6115406040518060400160405280601b81526020017f426f73732025732068617320257320485020616e642025732041440000000000815250600a60000180546114b190613b43565b80601f01602080910402602001604051908101604052809291908181526020018280546114dd90613b43565b801561152a5780601f106114ff5761010080835404028352916020019161152a565b820191906000526020600020905b81548152906001019060200180831161150d57829003601f168201915b5050505050600a60020154600a6004015461265c565b6000816003015411611587576040517f08c379a000000000000000000000000000000000000000000000000000000000815260040161157e906142bb565b60405180910390fd5b6000600a60020154116115cf576040517f08c379a00000000000000000000000000000000000000000000000000000000081526004016115c69061434d565b60405180910390fd5b8060050154600a6002015410156115f0576000600a6002018190555061160f565b8060050154600a60020154611605919061439c565b600a600201819055505b600a600401548160030154101561162f57600081600301819055506117e5565b600761163b600a6126fe565b111561171757600a600401548160030154611656919061439c565b8160030181905550611712604051806060016040528060258152602001614e1e60259139600a600001805461168a90613b43565b80601f01602080910402602001604051908101604052809291908181526020018280546116b690613b43565b80156117035780601f106116d857610100808354040283529160200191611703565b820191906000526020600020905b8154815290600101906020018083116116e657829003601f168201915b5050505050836003015461275a565b6117e4565b6117e36040518060400160405280600b81526020017f2573206d6973736564210a000000000000000000000000000000000000000000815250600a600001805461176090613b43565b80601f016020809104026020016040519081016040528092919081815260200182805461178c90613b43565b80156117d95780601f106117ae576101008083540402835291602001916117d9565b820191906000526020600020905b8154815290600101906020018083116117bc57829003601f168201915b50505050506127f9565b5b5b61180c604051806060016040528060258152602001614e4360259139600a60020154612895565b611832604051806060016040528060288152602001614ea8602891398260030154612895565b7f32bd565ee3f2cb5ddd742bbecd6048d3e9abe90b3827a40c2b72d232e71e3c9d33600a60020154836003015460405161186e939291906143d0565b60405180910390a15050565b6000600560008473ffffffffffffffffffffffffffffffffffffffff1673ffffffffffffffffffffffffffffffffffffffff16815260200190815260200160002060008373ffffffffffffffffffffffffffffffffffffffff1673ffffffffffffffffffffffffffffffffffffffff16815260200190815260200160002060009054906101000a900460ff16905092915050565b600061191a6006612931565b9050611926338261293f565b6040518060c001604052808381526020016007848154811061194b5761194a614407565b5b9060005260206000209060060201600101805461196790613b43565b80601f016020809104026020016040519081016040528092919081815260200182805461199390613b43565b80156119e05780601f106119b5576101008083540402835291602001916119e0565b820191906000526020600020905b8154815290600101906020018083116119c357829003601f168201915b50505050508152602001600784815481106119fe576119fd614407565b5b90600052602060002090600602016002018054611a1a90613b43565b80601f0160208091040260200160405190810160405280929190818152602001828054611a4690613b43565b8015611a935780601f10611a6857610100808354040283529160200191611a93565b820191906000526020600020905b815481529060010190602001808311611a7657829003601f168201915b5050505050815260200160078481548110611ab157611ab0614407565b5b906000526020600020906006020160030154815260200160078481548110611adc57611adb614407565b5b906000526020600020906006020160040154815260200160078481548110611b0757611b06614407565b5b90600052602060002090600602016005015481525060086000838152602001908152602001600020600082015181600001556020820151816001019081611b4e91906145e2565b506040820151816002019081611b6491906145e2565b50606082015181600301556080820151816004015560a08201518160050155905050611ba96040518060600160405280602e8152602001614ed0602e9139828461295d565b80600960003373ffffffffffffffffffffffffffffffffffffffff1673ffffffffffffffffffffffffffffffffffffffff16815260200190815260200160002081905550611bf76006611cd8565b7f4bc303fd457a97b4691b9af582ce71868a3d258638c8d4f8c60988a0f0bfb8cd338284604051611c2a939291906143d0565b60405180910390a15050565b611cd284848484604051602401611c5094939291906146b4565b6040516020818303038152906040527f5d1a971a000000000000000000000000000000000000000000000000000000007bffffffffffffffffffffffffffffffffffffffffffffffffffffffff19166020820180517bffffffffffffffffffffffffffffffffffffffffffffffffffffffff83818316178352505050506129fc565b50505050565b6001816000016000828254019250508190555050565b60007f01ffc9a7000000000000000000000000000000000000000000000000000000007bffffffffffffffffffffffffffffffffffffffffffffffffffffffff1916827bffffffffffffffffffffffffffffffffffffffffffffffffffffffff1916149050919050565b611d6181612a25565b611da0576040517f08c379a0000000000000000000000000000000000000000000000000000000008152600401611d9790613d76565b60405180910390fd5b50565b600033905090565b816004600083815260200190815260200160002060006101000a81548173ffffffffffffffffffffffffffffffffffffffff021916908373ffffffffffffffffffffffffffffffffffffffff160217905550808273ffffffffffffffffffffffffffffffffffffffff16611e1e836108d8565b73ffffffffffffffffffffffffffffffffffffffff167f8c5be1e5ebec7d5bd14f71427d1e84f3dd0314c0f7b2291e5b200ac8c7c3b92560405160405180910390a45050565b600080611e70836108d8565b90508073ffffffffffffffffffffffffffffffffffffffff168473ffffffffffffffffffffffffffffffffffffffff161480611eb25750611eb1818561187a565b5b80611ef057508373ffffffffffffffffffffffffffffffffffffffff16611ed8846106fb565b73ffffffffffffffffffffffffffffffffffffffff16145b91505092915050565b8273ffffffffffffffffffffffffffffffffffffffff16611f19826108d8565b73ffffffffffffffffffffffffffffffffffffffff1614611f6f576040517f08c379a0000000000000000000000000000000000000000000000000000000008152600401611f6690614780565b60405180910390fd5b600073ffffffffffffffffffffffffffffffffffffffff168273ffffffffffffffffffffffffffffffffffffffff1603611fde576040517f08c379a0000000000000000000000000000000000000000000000000000000008152600401611fd590614812565b60405180910390fd5b611feb8383836001612a66565b8273ffffffffffffffffffffffffffffffffffffffff1661200b826108d8565b73ffffffffffffffffffffffffffffffffffffffff1614612061576040517f08c379a000000000000000000000000000000000000000000000000000000000815260040161205890614780565b60405180910390fd5b6004600082815260200190815260200160002060006101000a81549073ffffffffffffffffffffffffffffffffffffffff02191690556001600360008573ffffffffffffffffffffffffffffffffffffffff1673ffffffffffffffffffffffffffffffffffffffff168152602001908152602001600020600082825403925050819055506001600360008473ffffffffffffffffffffffffffffffffffffffff1673ffffffffffffffffffffffffffffffffffffffff16815260200190815260200160002060008282540192505081905550816002600083815260200190815260200160002060006101000a81548173ffffffffffffffffffffffffffffffffffffffff021916908373ffffffffffffffffffffffffffffffffffffffff160217905550808273ffffffffffffffffffffffffffffffffffffffff168473ffffffffffffffffffffffffffffffffffffffff167fddf252ad1be2c89b69c2b068fc378daa952ba7f163c4a11628f55a4df523b3ef60405160405180910390a46121ed8383836001612b8c565b505050565b60006002600083815260200190815260200160002060009054906101000a900473ffffffffffffffffffffffffffffffffffffffff169050919050565b8173ffffffffffffffffffffffffffffffffffffffff168373ffffffffffffffffffffffffffffffffffffffff160361229d576040517f08c379a00000000000000000000000000000000000000000000000000000000081526004016122949061487e565b60405180910390fd5b80600560008573ffffffffffffffffffffffffffffffffffffffff1673ffffffffffffffffffffffffffffffffffffffff16815260200190815260200160002060008473ffffffffffffffffffffffffffffffffffffffff1673ffffffffffffffffffffffffffffffffffffffff16815260200190815260200160002060006101000a81548160ff0219169083151502179055508173ffffffffffffffffffffffffffffffffffffffff168373ffffffffffffffffffffffffffffffffffffffff167f17307eab39ab6107e8899845ad3d59bd9653f200f220920489ca2b5937696c318360405161238e9190613220565b60405180910390a3505050565b6123a6848484611ef9565b6123b284848484612b92565b6123f1576040517f08c379a00000000000000000000000000000000000000000000000000000000081526004016123e890614910565b60405180910390fd5b50505050565b60606000600161240684612d19565b01905060008167ffffffffffffffff81111561242557612424613700565b5b6040519080825280601f01601f1916602001820160405280156124575781602001600182028036833780820191505090505b509050600082602001820190505b6001156124ba578080600190039150507f3031323334353637383961626364656600000000000000000000000000000000600a86061a8153600a85816124ae576124ad614930565b5b04945060008503612465575b819350505050919050565b6060600082519050600081036124ed5760405180602001604052806000815250915050612657565b600060036002836124fe919061495f565b6125089190614993565b600461251491906149c4565b90506000602082612525919061495f565b67ffffffffffffffff81111561253e5761253d613700565b5b6040519080825280601f01601f1916602001820160405280156125705781602001600182028036833780820191505090505b5090506000604051806060016040528060408152602001614e68604091399050600181016020830160005b868110156126145760038101905062ffffff818a015116603f8160121c168401518060081b905060ff603f83600c1c1686015116810190508060081b905060ff603f8360061c1686015116810190508060081b905060ff603f831686015116810190508060e01b9050808452600484019350505061259b565b50600386066001811461262e576002811461263e57612649565b613d3d60f01b6002830352612649565b603d60f81b60018303525b508484525050819450505050505b919050565b6126f8848484846040516024016126769493929190614a06565b6040516020818303038152906040527ff45d7d2c000000000000000000000000000000000000000000000000000000007bffffffffffffffffffffffffffffffffffffffffffffffffffffffff19166020820180517bffffffffffffffffffffffffffffffffffffffffffffffffffffffff83818316178352505050506129fc565b50505050565b6000600f600081548092919061271390614a59565b9190505550814233600f5460405160200161273093929190614b0a565b6040516020818303038152906040528051906020012060001c6127539190614b47565b9050919050565b6127f483838360405160240161277293929190614b78565b6040516020818303038152906040527f5821efa1000000000000000000000000000000000000000000000000000000007bffffffffffffffffffffffffffffffffffffffffffffffffffffffff19166020820180517bffffffffffffffffffffffffffffffffffffffffffffffffffffffff83818316178352505050506129fc565b505050565b612891828260405160240161280f929190614bbd565b6040516020818303038152906040527f4b5c4277000000000000000000000000000000000000000000000000000000007bffffffffffffffffffffffffffffffffffffffffffffffffffffffff19166020820180517bffffffffffffffffffffffffffffffffffffffffffffffffffffffff83818316178352505050506129fc565b5050565b61292d82826040516024016128ab929190614bf4565b6040516020818303038152906040527fb60e72cc000000000000000000000000000000000000000000000000000000007bffffffffffffffffffffffffffffffffffffffffffffffffffffffff19166020820180517bffffffffffffffffffffffffffffffffffffffffffffffffffffffff83818316178352505050506129fc565b5050565b600081600001549050919050565b612959828260405180602001604052806000815250612e6c565b5050565b6129f783838360405160240161297593929190614c24565b6040516020818303038152906040527fca47c4eb000000000000000000000000000000000000000000000000000000007bffffffffffffffffffffffffffffffffffffffffffffffffffffffff19166020820180517bffffffffffffffffffffffffffffffffffffffffffffffffffffffff83818316178352505050506129fc565b505050565b60008151905060006a636f6e736f6c652e6c6f679050602083016000808483855afa5050505050565b60008073ffffffffffffffffffffffffffffffffffffffff16612a47836121f2565b73ffffffffffffffffffffffffffffffffffffffff1614159050919050565b6001811115612b8657600073ffffffffffffffffffffffffffffffffffffffff168473ffffffffffffffffffffffffffffffffffffffff1614612afa5780600360008673ffffffffffffffffffffffffffffffffffffffff1673ffffffffffffffffffffffffffffffffffffffff1681526020019081526020016000206000828254612af2919061439c565b925050819055505b600073ffffffffffffffffffffffffffffffffffffffff168373ffffffffffffffffffffffffffffffffffffffff1614612b855780600360008573ffffffffffffffffffffffffffffffffffffffff1673ffffffffffffffffffffffffffffffffffffffff1681526020019081526020016000206000828254612b7d919061495f565b925050819055505b5b50505050565b50505050565b6000612bb38473ffffffffffffffffffffffffffffffffffffffff16612ec7565b15612d0c578373ffffffffffffffffffffffffffffffffffffffff1663150b7a02612bdc611da3565b8786866040518563ffffffff1660e01b8152600401612bfe9493929190614cb7565b6020604051808303816000875af1925050508015612c3a57506040513d601f19601f82011682018060405250810190612c379190614d18565b60015b612cbc573d8060008114612c6a576040519150601f19603f3d011682016040523d82523d6000602084013e612c6f565b606091505b506000815103612cb4576040517f08c379a0000000000000000000000000000000000000000000000000000000008152600401612cab90614910565b60405180910390fd5b805181602001fd5b63150b7a0260e01b7bffffffffffffffffffffffffffffffffffffffffffffffffffffffff1916817bffffffffffffffffffffffffffffffffffffffffffffffffffffffff191614915050612d11565b600190505b949350505050565b600080600090507a184f03e93ff9f4daa797ed6e38ed64bf6a1f0100000000000000008310612d77577a184f03e93ff9f4daa797ed6e38ed64bf6a1f0100000000000000008381612d6d57612d6c614930565b5b0492506040810190505b6d04ee2d6d415b85acef81000000008310612db4576d04ee2d6d415b85acef81000000008381612daa57612da9614930565b5b0492506020810190505b662386f26fc100008310612de357662386f26fc100008381612dd957612dd8614930565b5b0492506010810190505b6305f5e1008310612e0c576305f5e1008381612e0257612e01614930565b5b0492506008810190505b6127108310612e31576127108381612e2757612e26614930565b5b0492506004810190505b60648310612e545760648381612e4a57612e49614930565b5b0492506002810190505b600a8310612e63576001810190505b80915050919050565b612e768383612eea565b612e836000848484612b92565b612ec2576040517f08c379a0000000000000000000000000000000000000000000000000000000008152600401612eb990614910565b60405180910390fd5b505050565b6000808273ffffffffffffffffffffffffffffffffffffffff163b119050919050565b600073ffffffffffffffffffffffffffffffffffffffff168273ffffffffffffffffffffffffffffffffffffffff1603612f59576040517f08c379a0000000000000000000000000000000000000000000000000000000008152600401612f5090614d91565b60405180910390fd5b612f6281612a25565b15612fa2576040517f08c379a0000000000000000000000000000000000000000000000000000000008152600401612f9990614dfd565b60405180910390fd5b612fb0600083836001612a66565b612fb981612a25565b15612ff9576040517f08c379a0000000000000000000000000000000000000000000000000000000008152600401612ff090614dfd565b60405180910390fd5b6001600360008473ffffffffffffffffffffffffffffffffffffffff1673ffffffffffffffffffffffffffffffffffffffff16815260200190815260200160002060008282540192505081905550816002600083815260200190815260200160002060006101000a81548173ffffffffffffffffffffffffffffffffffffffff021916908373ffffffffffffffffffffffffffffffffffffffff160217905550808273ffffffffffffffffffffffffffffffffffffffff16600073ffffffffffffffffffffffffffffffffffffffff167fddf252ad1be2c89b69c2b068fc378daa952ba7f163c4a11628f55a4df523b3ef60405160405180910390a4613103600083836001612b8c565b5050565b6040518060a0016040528060608152602001606081526020016000815260200160008152602001600081525090565b6040518060c001604052806000815260200160608152602001606081526020016000815260200160008152602001600081525090565b6000604051905090565b600080fd5b600080fd5b60007fffffffff0000000000000000000000000000000000000000000000000000000082169050919050565b6131b581613180565b81146131c057600080fd5b50565b6000813590506131d2816131ac565b92915050565b6000602082840312156131ee576131ed613176565b5b60006131fc848285016131c3565b91505092915050565b60008115159050919050565b61321a81613205565b82525050565b60006020820190506132356000830184613211565b92915050565b600081519050919050565b600082825260208201905092915050565b60005b8381101561327557808201518184015260208101905061325a565b60008484015250505050565b6000601f19601f8301169050919050565b600061329d8261323b565b6132a78185613246565b93506132b7818560208601613257565b6132c081613281565b840191505092915050565b6000819050919050565b6132de816132cb565b82525050565b600060a08301600083015184820360008601526133018282613292565b9150506020830151848203602086015261331b8282613292565b915050604083015161333060408601826132d5565b50606083015161334360608601826132d5565b50608083015161335660808601826132d5565b508091505092915050565b6000602082019050818103600083015261337b81846132e4565b905092915050565b600082825260208201905092915050565b600061339f8261323b565b6133a98185613383565b93506133b9818560208601613257565b6133c281613281565b840191505092915050565b600060208201905081810360008301526133e78184613394565b905092915050565b6133f8816132cb565b811461340357600080fd5b50565b600081359050613415816133ef565b92915050565b60006020828403121561343157613430613176565b5b600061343f84828501613406565b91505092915050565b600073ffffffffffffffffffffffffffffffffffffffff82169050919050565b600061347382613448565b9050919050565b61348381613468565b82525050565b600060208201905061349e600083018461347a565b92915050565b6134ad81613468565b81146134b857600080fd5b50565b6000813590506134ca816134a4565b92915050565b600080604083850312156134e7576134e6613176565b5b60006134f5858286016134bb565b925050602061350685828601613406565b9150509250929050565b60008060006060848603121561352957613528613176565b5b6000613537868287016134bb565b9350506020613548868287016134bb565b925050604061355986828701613406565b9150509250925092565b60006020828403121561357957613578613176565b5b6000613587848285016134bb565b91505092915050565b613599816132cb565b82525050565b60006020820190506135b46000830184613590565b92915050565b600060c0820190506135cf6000830189613590565b81810360208301526135e18188613394565b905081810360408301526135f58187613394565b90506136046060830186613590565b6136116080830185613590565b61361e60a0830184613590565b979650505050505050565b61363281613205565b811461363d57600080fd5b50565b60008135905061364f81613629565b92915050565b6000806040838503121561366c5761366b613176565b5b600061367a858286016134bb565b925050602061368b85828601613640565b9150509250929050565b600060a08201905081810360008301526136af8188613394565b905081810360208301526136c38187613394565b90506136d26040830186613590565b6136df6060830185613590565b6136ec6080830184613590565b9695505050505050565b600080fd5b600080fd5b7f4e487b7100000000000000000000000000000000000000000000000000000000600052604160045260246000fd5b61373882613281565b810181811067ffffffffffffffff8211171561375757613756613700565b5b80604052505050565b600061376a61316c565b9050613776828261372f565b919050565b600067ffffffffffffffff82111561379657613795613700565b5b61379f82613281565b9050602081019050919050565b82818337600083830152505050565b60006137ce6137c98461377b565b613760565b9050828152602081018484840111156137ea576137e96136fb565b5b6137f58482856137ac565b509392505050565b600082601f830112613812576138116136f6565b5b81356138228482602086016137bb565b91505092915050565b6000806000806080858703121561384557613844613176565b5b6000613853878288016134bb565b9450506020613864878288016134bb565b935050604061387587828801613406565b925050606085013567ffffffffffffffff8111156138965761389561317b565b5b6138a2878288016137fd565b91505092959194509250565b600081519050919050565b600082825260208201905092915050565b6000819050602082019050919050565b600060c0830160008301516138f260008601826132d5565b506020830151848203602086015261390a8282613292565b915050604083015184820360408601526139248282613292565b915050606083015161393960608601826132d5565b50608083015161394c60808601826132d5565b5060a083015161395f60a08601826132d5565b508091505092915050565b600061397683836138da565b905092915050565b6000602082019050919050565b6000613996826138ae565b6139a081856138b9565b9350836020820285016139b2856138ca565b8060005b858110156139ee57848403895281516139cf858261396a565b94506139da8361397e565b925060208a019950506001810190506139b6565b50829750879550505050505092915050565b60006020820190508181036000830152613a1a818461398b565b905092915050565b600060c083016000830151613a3a60008601826132d5565b5060208301518482036020860152613a528282613292565b91505060408301518482036040860152613a6c8282613292565b9150506060830151613a8160608601826132d5565b506080830151613a9460808601826132d5565b5060a0830151613aa760a08601826132d5565b508091505092915050565b60006020820190508181036000830152613acc8184613a22565b905092915050565b60008060408385031215613aeb57613aea613176565b5b6000613af9858286016134bb565b9250506020613b0a858286016134bb565b9150509250929050565b7f4e487b7100000000000000000000000000000000000000000000000000000000600052602260045260246000fd5b60006002820490506001821680613b5b57607f821691505b602082108103613b6e57613b6d613b14565b5b50919050565b7f4552433732313a20617070726f76616c20746f2063757272656e74206f776e6560008201527f7200000000000000000000000000000000000000000000000000000000000000602082015250565b6000613bd0602183613383565b9150613bdb82613b74565b604082019050919050565b60006020820190508181036000830152613bff81613bc3565b9050919050565b7f4552433732313a20617070726f76652063616c6c6572206973206e6f7420746f60008201527f6b656e206f776e6572206f7220617070726f76656420666f7220616c6c000000602082015250565b6000613c62603d83613383565b9150613c6d82613c06565b604082019050919050565b60006020820190508181036000830152613c9181613c55565b9050919050565b7f4552433732313a2063616c6c6572206973206e6f7420746f6b656e206f776e6560008201527f72206f7220617070726f76656400000000000000000000000000000000000000602082015250565b6000613cf4602d83613383565b9150613cff82613c98565b604082019050919050565b60006020820190508181036000830152613d2381613ce7565b9050919050565b7f4552433732313a20696e76616c696420746f6b656e2049440000000000000000600082015250565b6000613d60601883613383565b9150613d6b82613d2a565b602082019050919050565b60006020820190508181036000830152613d8f81613d53565b9050919050565b7f4552433732313a2061646472657373207a65726f206973206e6f74206120766160008201527f6c6964206f776e65720000000000000000000000000000000000000000000000602082015250565b6000613df2602983613383565b9150613dfd82613d96565b604082019050919050565b60006020820190508181036000830152613e2181613de5565b9050919050565b600081905092915050565b7f7b226e616d65223a202200000000000000000000000000000000000000000000600082015250565b6000613e69600a83613e28565b9150613e7482613e33565b600a82019050919050565b6000613e8a8261323b565b613e948185613e28565b9350613ea4818560208601613257565b80840191505092915050565b7f202d204e46542023000000000000000000000000000000000000000000000000600082015250565b6000613ee6600883613e28565b9150613ef182613eb0565b600882019050919050565b7f222c20226465736372697074696f6e223a20225468697320697320616e204e4660008201527f542074686174206c6574732070656f706c6520706c617920696e20746865206760208201527f616d652056616e696c6c61205261696465727321204d6164652062792041647660408201527f336e747572652e78797a2e222c2022696d616765223a2022697066733a2f2f00606082015250565b6000613fa4607f83613e28565b9150613faf82613efc565b607f82019050919050565b7f222c202261747472696275746573223a205b207b202274726169745f7479706560008201527f223a20224865616c746820506f696e7473222c202276616c7565223a20000000602082015250565b6000614016603d83613e28565b915061402182613fba565b603d82019050919050565b7f2c20226d61785f76616c7565223a000000000000000000000000000000000000600082015250565b6000614062600e83613e28565b915061406d8261402c565b600e82019050919050565b7f7d2c207b202274726169745f74797065223a202241747461636b2044616d616760008201527f65222c202276616c7565223a2000000000000000000000000000000000000000602082015250565b60006140d4602d83613e28565b91506140df82614078565b602d82019050919050565b7f7d205d7d00000000000000000000000000000000000000000000000000000000600082015250565b6000614120600483613e28565b915061412b826140ea565b600482019050919050565b600061414182613e5c565b915061414d8289613e7f565b915061415882613ed9565b91506141648288613e7f565b915061416f82613f97565b915061417b8287613e7f565b915061418682614009565b91506141928286613e7f565b915061419d82614055565b91506141a98285613e7f565b91506141b4826140c7565b91506141c08284613e7f565b91506141cb82614113565b9150819050979650505050505050565b7f646174613a6170706c69636174696f6e2f6a736f6e3b6261736536342c000000600082015250565b6000614211601d83613e28565b915061421c826141db565b601d82019050919050565b600061423282614204565b915061423e8284613e7f565b915081905092915050565b7f4572726f723a20636861726163746572206d757374206861766520485020746f60008201527f2061747461636b20626f73732e00000000000000000000000000000000000000602082015250565b60006142a5602d83613383565b91506142b082614249565b604082019050919050565b600060208201905081810360008301526142d481614298565b9050919050565b7f4572726f723a20626f7373206d757374206861766520485020746f206174746160008201527f636b206368617261637465722e00000000000000000000000000000000000000602082015250565b6000614337602d83613383565b9150614342826142db565b604082019050919050565b600060208201905081810360008301526143668161432a565b9050919050565b7f4e487b7100000000000000000000000000000000000000000000000000000000600052601160045260246000fd5b60006143a7826132cb565b91506143b2836132cb565b92508282039050818111156143ca576143c961436d565b5b92915050565b60006060820190506143e5600083018661347a565b6143f26020830185613590565b6143ff6040830184613590565b949350505050565b7f4e487b7100000000000000000000000000000000000000000000000000000000600052603260045260246000fd5b60008190508160005260206000209050919050565b60006020601f8301049050919050565b600082821b905092915050565b6000600883026144987fffffffffffffffffffffffffffffffffffffffffffffffffffffffffffffffff8261445b565b6144a2868361445b565b95508019841693508086168417925050509392505050565b6000819050919050565b60006144df6144da6144d5846132cb565b6144ba565b6132cb565b9050919050565b6000819050919050565b6144f9836144c4565b61450d614505826144e6565b848454614468565b825550505050565b600090565b614522614515565b61452d8184846144f0565b505050565b5b818110156145515761454660008261451a565b600181019050614533565b5050565b601f8211156145965761456781614436565b6145708461444b565b8101602085101561457f578190505b61459361458b8561444b565b830182614532565b50505b505050565b600082821c905092915050565b60006145b96000198460080261459b565b1980831691505092915050565b60006145d283836145a8565b9150826002028217905092915050565b6145eb8261323b565b67ffffffffffffffff81111561460457614603613700565b5b61460e8254613b43565b614619828285614555565b600060209050601f83116001811461464c576000841561463a578287015190505b61464485826145c6565b8655506146ac565b601f19841661465a86614436565b60005b828110156146825784890151825560018201915060208501945060208101905061465d565b8683101561469f578489015161469b601f8916826145a8565b8355505b6001600288020188555050505b505050505050565b600060808201905081810360008301526146ce8187613394565b905081810360208301526146e28186613394565b90506146f16040830185613590565b81810360608301526147038184613394565b905095945050505050565b7f4552433732313a207472616e736665722066726f6d20696e636f72726563742060008201527f6f776e6572000000000000000000000000000000000000000000000000000000602082015250565b600061476a602583613383565b91506147758261470e565b604082019050919050565b600060208201905081810360008301526147998161475d565b9050919050565b7f4552433732313a207472616e7366657220746f20746865207a65726f2061646460008201527f7265737300000000000000000000000000000000000000000000000000000000602082015250565b60006147fc602483613383565b9150614807826147a0565b604082019050919050565b6000602082019050818103600083015261482b816147ef565b9050919050565b7f4552433732313a20617070726f766520746f2063616c6c657200000000000000600082015250565b6000614868601983613383565b915061487382614832565b602082019050919050565b600060208201905081810360008301526148978161485b565b9050919050565b7f4552433732313a207472616e7366657220746f206e6f6e20455243373231526560008201527f63656976657220696d706c656d656e7465720000000000000000000000000000602082015250565b60006148fa603283613383565b91506149058261489e565b604082019050919050565b60006020820190508181036000830152614929816148ed565b9050919050565b7f4e487b7100000000000000000000000000000000000000000000000000000000600052601260045260246000fd5b600061496a826132cb565b9150614975836132cb565b925082820190508082111561498d5761498c61436d565b5b92915050565b600061499e826132cb565b91506149a9836132cb565b9250826149b9576149b8614930565b5b828204905092915050565b60006149cf826132cb565b91506149da836132cb565b92508282026149e8816132cb565b915082820484148315176149ff576149fe61436d565b5b5092915050565b60006080820190508181036000830152614a208187613394565b90508181036020830152614a348186613394565b9050614a436040830185613590565b614a506060830184613590565b95945050505050565b6000614a64826132cb565b91507fffffffffffffffffffffffffffffffffffffffffffffffffffffffffffffffff8203614a9657614a9561436d565b5b600182019050919050565b6000819050919050565b614abc614ab7826132cb565b614aa1565b82525050565b60008160601b9050919050565b6000614ada82614ac2565b9050919050565b6000614aec82614acf565b9050919050565b614b04614aff82613468565b614ae1565b82525050565b6000614b168286614aab565b602082019150614b268285614af3565b601482019150614b368284614aab565b602082019150819050949350505050565b6000614b52826132cb565b9150614b5d836132cb565b925082614b6d57614b6c614930565b5b828206905092915050565b60006060820190508181036000830152614b928186613394565b90508181036020830152614ba68185613394565b9050614bb56040830184613590565b949350505050565b60006040820190508181036000830152614bd78185613394565b90508181036020830152614beb8184613394565b90509392505050565b60006040820190508181036000830152614c0e8185613394565b9050614c1d6020830184613590565b9392505050565b60006060820190508181036000830152614c3e8186613394565b9050614c4d6020830185613590565b614c5a6040830184613590565b949350505050565b600081519050919050565b600082825260208201905092915050565b6000614c8982614c62565b614c938185614c6d565b9350614ca3818560208601613257565b614cac81613281565b840191505092915050565b6000608082019050614ccc600083018761347a565b614cd9602083018661347a565b614ce66040830185613590565b8181036060830152614cf88184614c7e565b905095945050505050565b600081519050614d12816131ac565b92915050565b600060208284031215614d2e57614d2d613176565b5b6000614d3c84828501614d03565b91505092915050565b7f4552433732313a206d696e7420746f20746865207a65726f2061646472657373600082015250565b6000614d7b602083613383565b9150614d8682614d45565b602082019050919050565b60006020820190508181036000830152614daa81614d6e565b9050919050565b7f4552433732313a20746f6b656e20616c7265616479206d696e74656400000000600082015250565b6000614de7601c83613383565b9150614df282614db1565b602082019050919050565b60006020820190508181036000830152614e1681614dda565b905091905056fe25732061747461636b656420706c617965722e204e657720706c617965722068703a202573506c617965722061747461636b656420626f73732e204e657720626f73732068703a2025734142434445464748494a4b4c4d4e4f505152535455565758595a6162636465666768696a6b6c6d6e6f707172737475767778797a303132333435363738392b2f426f73732061747461636b656420706c617965722e204e657720706c617965722068703a2025730a4d696e746564204e465420772f20746f6b656e496420257320616e6420636861726163746572496e6465782025730a506c6179657220772f206368617261637465722025732061626f757420746f2061747461636b2e2048617320257320485020616e64202573204144a264697066735822122086da4e404d05f17806e8695bdfd6b57439841557051b0f4d22f4575e4312b8d764736f6c63430008110033446f6e6520696e697469616c697a696e6720257320772f2048502025732c20696d67202573446f6e6520696e697469616c697a696e6720626f737320257320772f2048502025732c20696d67202573",
  "linkReferences": {},
  "deployedLinkReferences": {}
}